:020000040800F2
:1000000000500020C91700086103000865030008BC
:10001000690300086D030008710300080000000078
:100020000000000000000000000000007503000850
:1000300079030008000000007D0300088103000828
:1000400011180008111800081118000811180008EC
:1000500011180008111800081118000811180008DC
:1000600011180008111800081118000811180008CC
:1000700011180008111800081118000811180008BC
:1000800011180008111800081118000811180008AC
:10009000111800081118000811180008111800089C
:1000A000111800081118000811180008111800088C
:1000B000111800081118000811180008111800087C
:1000C000111800081118000811180008111800086C
:1000D000111800081118000811180008111800085C
:1000E000111800081118000811180008000000007D
:1000F0000000000000000000000000000000000000
:0C01000000000000000000005FF808F1A3
:10010C00044B05481B1A062B02D9044B03B11847A4
:10011C00704700BFD3000020D0000020000000007A
:10012C0005490648091A891001EBD171491002D012
:10013C00034B03B118477047D0000020D0000020BB
:10014C000000000010B5064C237843B9FFF7D8FF28
:10015C00044B13B10448AFF300800123237010BD8E
:10016C00D0000020000000006018000808B5084B03
:10017C001BB108480849AFF300800848036813B95D
:10018C00BDE80840CCE7064B002BF9D09847F7E7C1
:10019C000000000060180008D4000020D0000020EF
:1001AC00000000000F4B1A6842F001021A605968F7
:1001BC000D4A0A405A601A6822F0847222F4803286
:1001CC001A601A6822F480221A605A6822F4FE021D
:1001DC005A604FF41F029A604FF00062034B9A6012
:1001EC00704700BF001002400000FFF800ED00E077
:1001FC00002211E000BF00BF00BF00BF00BF00BF66
:10020C0000BF00BF00BF00BF00BF013300E00023F0
:10021C00B3F57A7FEED301328242F8D3704700BF38
:10022C0030B595B009230A934FF480330B93002417
:10023C000C94012210920225119512934FF4E013A5
:10024C0013930AA800F09EF80F23059306950794C4
:10025C004FF480630893099405A8294600F066FCC6
:10026C0001954FF40043039301A801F0F1F800F05D
:10027C00AFFD084BA3FB0030800901F017FA0420F6
:10028C0001F02AFA4FF0FF302146224601F0CCF95A
:10029C0015B030BDD34D621000B583B000F014FF23
:1002AC00FFF7BEFF002001F03BFA284B9A6942F0A1
:1002BC0004029A619A6902F004020092009A9A6907
:1002CC0042F020029A619B6903F020030193019B89
:1002DC004FF4005001F02EFA002001F031FA00200A
:1002EC0001F034FA022001F03DFA202001F022FA4C
:1002FC00012001F025FA032001F02EFA002001F074
:10030C0031FA102001F016FA114801F019FA002008
:10031C0001F01CFA022001F025FA002020210246EF
:10032C0001F036FA00202021012201F031FA4FF4BD
:10033C007A70FFF75DFF00202021024601F028FAB9
:10034C004FF47A70FFF754FFECE700BF0010024047
:10035C0000001110704700BFFEE700BFFEE700BFB2
:10036C00FEE700BFFEE700BF704700BF704700BF4D
:10037C00704700BF08B500F0B9FE01F0CBF908BD1D
:10038C00FEE700BF30B583B0044620B9BA484FF43D
:10039C008771FFF7F5FF23683BB113F00F0F04D102
:1003AC00B54840F20F11FFF7EBFF236813F0010F74
:1003BC0000F0A380636853B1B3F5803F07D0B3F569
:1003CC00A02F04D0AC4840F21511FFF7D9FFAB4B6E
:1003DC005B6803F00C03042B0AD0A84B5B6803F09A
:1003EC000C03082B1BD1A54B5B6813F4803F16D074
:1003FC004FF4003393FAA3F3A04B1A684FF4003375
:10040C0093FAA3F3B3FA83F303F01F0322FA03F373
:10041C0013F0010F71D06368002B6ED119E3636880
:10042C00B3F5803F05D1954A136843F480331360CC
:10043C0026E063B903F1804303F504331A6822F410
:10044C0080321A601A6822F480221A6018E0B3F520
:10045C00A02F0CD103F18043A3F53C331A6842F46E
:10046C0080221A601A6842F480321A6008E0834BCA
:10047C001A6822F480321A601A6822F480221A60F8
:10048C006368EBB100F03AFE054605E000F036FE7D
:10049C00401B642800F2DF824FF4003393FAA3F37D
:1004AC00764B1A684FF4003393FAA3F3B3FA83F341
:1004BC0003F01F0322FA03F313F0010FE6D01CE044
:1004CC0000F01CFE054605E000F018FE401B6428F9
:1004DC0000F2C3824FF4003393FAA3F3674B1A680C
:1004EC004FF4003393FAA3F3B3FA83F303F01F032F
:1004FC0022FA03F313F0010FE6D1236813F0020F75
:10050C0000F0A0802369012B04D95B4840F249110B
:10051C00FFF736FF63691F2B04D957484FF4A571B9
:10052C00FFF72EFF554B5B6813F00C0F0AD0534BA3
:10053C005B6803F00C03082B27D1504B5B6813F45A
:10054C00803F22D1022393FAA3F34C4B1A68022367
:10055C0093FAA3F3B3FA83F303F01F0322FA03F322
:10056C0013F0010F03D02369012B40F0788243482C
:10057C00036823F0F8016369F82292FAA2F2B2FA46
:10058C0082F293400B4303605CE023699BB301222E
:10059C0092FAA2F3B3FA83F39B0003F1844303F5BD
:1005AC0084031A6000F0AAFD054605E000F0A6FDE4
:1005BC00401B022800F25582022393FAA3F32F4B1F
:1005CC001A68022393FAA3F3B3FA83F303F01F031D
:1005DC0022FA03F313F0010FE8D02848036823F044
:1005EC00F8016369F82292FAA2F2B2FA82F293400D
:1005FC000B43036026E0012393FAA3F3B3FA83F3CE
:10060C009B0003F1844303F5840300221A6000F07D
:10061C0075FD054605E000F071FD401B022800F257
:10062C002282022393FAA3F3144B1A68022393FA3F
:10063C00A3F3B3FA83F303F01F0322FA03F313F0CB
:10064C00010FE8D1236813F0080F5CD0A369012BCC
:10065C0004D909484FF4C571FFF792FEA3696BB337
:10066C00012292FAA2F3B3FA83F3054941F823204D
:10067C0000F044FD05460BE0A418000800100240F1
:10068C008004424200F03AFD401B022800F2ED814A
:10069C00022393FAA3F293FAA3F2A34A526A93FAAF
:1006AC00A3F3B3FA83F303F01F0322FA03F313F05B
:1006BC00010FE7D0012000F027FD24E0012393FA7D
:1006CC00A3F3B3FA83F30021984A42F8231000F005
:1006DC0015FD054605E000F011FD401B022800F257
:1006EC00C681022393FAA3F293FAA3F28E4A526ABA
:1006FC0093FAA3F3B3FA83F303F01F0322FA03F381
:10070C0013F0010FE7D1236813F0040F00F0A98058
:10071C00E368012B06D9052B04D0854840F2B711AC
:10072C00FFF72EFE804BDA6942F08052DA61DB690A
:10073C0003F080530193019B7E4A136843F480734A
:10074C00136000F0DBFC054605E000F0D7FC401B15
:10075C00642800F28E81774B1B6813F4807FF4D0F1
:10076C00E368012B05D1704A136A43F0010313624D
:10077C0022E063B903F1804303F504331A6A22F0D3
:10078C0001021A621A6A22F004021A6214E0052BA2
:10079C0009D1654B1A6A42F004021A621A6A42F0D5
:1007AC0001021A6208E0604B1A6A22F001021A6216
:1007BC001A6A22F004021A62E3684BB300F09EFC42
:1007CC00054607E000F09AFC401B41F28833984242
:1007DC0000F25181022393FAA3F293FAA3F3B3FA32
:1007EC0083F343F040035B09022B02D14E4B1A6A90
:1007FC0001E04D4B5A6A022393FAA3F3B3FA83F345
:10080C0003F01F0322FA03F313F0010FDAD028E0F0
:10081C0000F074FC054607E000F070FC401B41F250
:10082C008833984200F22981022393FAA3F293FAB7
:10083C00A3F3B3FA83F343F040035B09022B02D119
:10084C00394B1A6A01E0384B5A6A022393FAA3F324
:10085C00B3FA83F303F01F0322FA03F313F0010F2F
:10086C00DAD1E369022B04D9314840F24721FFF772
:10087C0087FDE369002B00F002812B4A526802F0DD
:10088C000C02082A00F0FD80022B40F0B780236A8E
:10089C003BB1B3F5803F04D025484FF41471FFF7FA
:1008AC006FFD636A73B3B3F5802F2BD0B3F5002FB4
:1008BC0028D0B3F5402F25D0B3F5801F22D0B3F547
:1008CC00A01F1FD0B3F5C01F1CD0B3F5E01F19D06B
:1008DC00B3F5001F16D0B3F5101F13D0B3F5201FBE
:1008EC0010D0B3F5301F0DD0B3F5401F0AD0B3F5BF
:1008FC00501F07D0B3F5601F04D00D4840F25121B2
:10090C00FFF73EFD4FF0807393FAA3F3B3FA83F332
:10091C009B0003F1844303F5840300221A6000F06A
:10092C00EDFB05460EE000BF001002408004424281
:10093C00A41800080070004000F0E0FB401B0228E7
:10094C0000F2A1804FF0007393FAA3F3514B1A6895
:10095C004FF0007393FAA3F3B3FA83F303F01F037E
:10096C0022FA03F313F0010FE6D1236AB3F5803FAB
:10097C0010D1A3683BB1B3F5003F04D0464840F218
:10098C006721FFF7FDFC43494B6823F40032A36851
:10099C0013434B603F48436823F47411236A626A23
:1009AC0013430B4343604FF0807393FAA3F3B3FAF2
:1009BC0083F39B0003F1844303F5840301221A6043
:1009CC0000F09CFB044604E000F098FB001B02289E
:1009DC005BD84FF0007393FAA3F32E4B1A684FF0C9
:1009EC00007393FAA3F3B3FA83F303F01F0322FA11
:1009FC0003F313F0010FE7D0002049E04FF08073B0
:100A0C0093FAA3F3B3FA83F39B0003F1844303F546
:100A1C00840300221A6000F071FB044604E000F02D
:100A2C006DFB001B022832D84FF0007393FAA3F32E
:100A3C00184B1A684FF0007393FAA3F3B3FA83F3CD
:100A4C0003F01F0322FA03F313F0010FE7D1002088
:100A5C001EE001201CE003201AE0032018E0012016
:100A6C0016E0032014E0032012E0032010E0032022
:100A7C000EE003200CE003200AE0032008E0002035
:100A8C0006E0012004E0032002E0032000E0032044
:100A9C0003B030BD00100240A418000830B486B07A
:100AAC001E4D02AC28686968AA68EB680FC42B8AD3
:100ABC00ADF804301A4B5A6802F00C03082B28D1FD
:100ACC0002F470134FF4701191FAA1F1B1FA81F1A3
:100ADC00CB4006A90B4413F8103C12F4803F14D001
:100AEC000F4A526802F400324FF4003191FAA1F12E
:100AFC00B1FA81F1CA4006A90A4412F8140C094A49
:100B0C00B2FBF0F003FB00F004E0074800FB03F03D
:100B1C0000E0044806B030BC704700BF78180008ED
:100B2C000010024000127A0000093D0070B50D461D
:100B3C00044620B9A1484FF42F71FFF721FC23681C
:100B4C0013F00F0F04D19D4840F2BD21FFF718FCA4
:100B5C00022D04D9994840F2BE21FFF711FC984BA5
:100B6C001B6803F00703AB420BD2954A136823F0C2
:100B7C0007032B431360136803F00703AB4240F0E9
:100B8C000C81236813F0020F1DD0A368A3B1802B36
:100B9C0012D0902B10D0A02B0ED0B02B0CD0C02B81
:100BAC000AD0D02B08D0E02B06D0F02B04D08348F1
:100BBC0040F2D721FFF7E4FB82494B6823F0F002A7
:100BCC00A36813434B60236813F0010F00F081807E
:100BDC006368022B04D9794840F2DE21FFF7D0FB81
:100BEC006268012A13D14FF4003393FAA3F3754BC7
:100BFC0019684FF4003393FAA3F3B3FA83F303F0B9
:100C0C001F0321FA03F313F0010F28D1C7E0022AC6
:100C1C0013D14FF0007393FAA3F36A4B19684FF09A
:100C2C00007393FAA3F3B3FA83F303F01F0321FACF
:100C3C0003F313F0010F12D1B3E0022393FAA3F3E1
:100C4C00604B1968022393FAA3F3B3FA83F303F00E
:100C5C001F0321FA03F313F0010F00F0A48059498C
:100C6C004B6823F0030313434B6000F047FA06462E
:100C7C006368012B0FD107E000F040FA801B41F2B2
:100C8C008833984200F291804E4B5B6803F00C0362
:100C9C00042BF1D11DE0022B16D107E000F02EFA47
:100CAC00801B41F28833984200F28180454B5B688F
:100CBC0003F00C03082BF1D10BE000F01FFA801BA2
:100CCC0041F28833984274D83E4B5B6813F00C0F9A
:100CDC00F3D13B4B1B6803F00703AB420AD9384AEC
:100CEC00136823F007032B431360136803F0070307
:100CFC00AB4260D1236813F0040F19D0E36883B1C1
:100D0C00B3F5806F0DD0B3F5A06F0AD0B3F5C06FFB
:100D1C0007D0B3F5E06F04D0284840F23231FFF72A
:100D2C002FFB28494B6823F4E062E36813434B60C4
:100D3C00236813F0080F1AD0236983B1B3F5806FC1
:100D4C000DD0B3F5A06F0AD0B3F5C06F07D0B3F5D3
:100D5C00E06F04D0194840F23931FFF711FB194A02
:100D6C00536823F46053216943EAC1035360FFF7CE
:100D7C0095FE144B5B6803F0F003F02292FAA2F29A
:100D8C00B2FA82F2D340104AD35CD8400F4B1860B1
:100D9C00002000F085F9002070BD012070BD0120FD
:100DAC0070BD012070BD012070BD032070BD0320FB
:100DBC0070BD032070BD012070BD00BFA4180008D9
:100DCC0000200240001002408C1800080000002097
:100DDC00014B1868704700BF0000002008B5FFF7F2
:100DEC00F7FF074B5B6803F4E0634FF4E06292FAA1
:100DFC00A2F2B2FA82F2D340024AD35CD84008BDC8
:100E0C00001002409C18000808B5FFF7E1FF074BE3
:100E1C005B6803F460534FF4605292FAA2F2B2FA98
:100E2C0082F2D340024AD35CD84008BD0010024085
:100E3C009C1800082DE9F041044683693BB1B3F5D9
:100E4C00806F04D071484FF4E561FFF799FAE369BC
:100E5C003BB1B3F5007F04D06C4840F22971FFF729
:100E6C008FFA236A3BB1B3F5807F04D0674840F218
:100E7C002A71FFF785FA6268654B9A4204D9634878
:100E8C0040F22B71FFF77CFAA3683BB1B3F5805F9E
:100E9C0004D05E4840F22C71FFF772FAE3686BB134
:100EAC00B3F5805F0AD0B3F5405F07D0B3F5005FB0
:100EBC0004D0564840F22D71FFF762FA236953B102
:100ECC00B3F5806F07D0B3F5C06F04D04F4840F234
:100EDC002E71FFF755FA636933F00C0200D123B978
:100EEC004A4840F22F71FFF74BFA2268D36823F07F
:100EFC000C03D3602068036923F47C52A169E36975
:100F0C001943236A1943E3680B43134343F4006307
:100F1C0003612068C36823F4B05222F00C02A1686C
:100F2C002369194363690B431343C36022685369F4
:100F3C0023F4407353612568364B9D4232D1FFF741
:100F4C0063FF00EB800000EB800063689B00B0FB4C
:100F5C00F3F3314FA7FB03235B091E01FFF754FF8B
:100F6C0000EB800000EB800063689B00B0FBF3F8A3
:100F7C00FFF74AFF00EB800000EB800063689B00EA
:100F8C00B0FBF3F3A7FB03235B09642202FB13837F
:100F9C001B013233A7FB0323C3F343133343AB606F
:100FAC00BDE8F081FFF71AFF00EB800000EB80003A
:100FBC0063689B00B0FBF3F3174FA7FB03235B099C
:100FCC001E01FFF70BFF00EB800000EB8000636855
:100FDC009B00B0FBF3F8FFF701FF00EB800000EB88
:100FEC00800063689B00B0FBF3F3A7FB03235A0953
:100FFC00642303FB12831B013233A7FB0323C3F3CC
:10100C0043133343AB60BDE8F08100BFDC1800082C
:10101C0020AA4400003801401F85EB51704700BFE7
:10102C00002837D010B5044603681B4A93420BD0F6
:10103C00A2F57442934207D002F58062934203D02A
:10104C001648FC21FFF79CF994F83D3013F0FF0F84
:10105C0005D1002384F83C302046FFF7DFFF022344
:10106C0084F83D302046FFF7E5FE2268136923F42F
:10107C00804313612268536923F02A035361226869
:10108C00D36843F40053D36000202064012384F818
:10109C003D3010BD0120704700380140DC180008BD
:1010AC0010B50446FFF794FE064BA3FB00308009F5
:1010BC0000F0FCFA4FF0FF302146002200F0B4FAA9
:1010CC00002010BDD34D621008B5074A136843F0D9
:1010DC0010031360032000F089FA0020FFF7E0FFF3
:1010EC0000F01CFB002008BD00200240024A1368DF
:1010FC0001331360704700BFEC000020014B1868EF
:10110C00704700BFEC00002010B582B00190FFF7D3
:10111C00F5FF0446FFF7F2FF001B019B9842F9D341
:10112C0002B010BD2DE9F04383B080460F46B34B9F
:10113C00984213D003F5806398420FD003F5806377
:10114C0098420BD003F58063984207D003F5806377
:10115C00984203D0AA48CF21FFF712F93B881BB95C
:10116C00A748D021FFF70CF97B68012B22D9112B52
:10117C0020D0022B1ED0122B1CD0A24A934219D085
:10118C0002F58012934215D002F58012934211D0D1
:10119C00A2F5F81293420DD002F58012934209D0B9
:1011AC0002F58012934205D0032B03D09448D12131
:1011BC00FFF7E6F84FF000094E4619E10125B5405E
:1011CC003C682C40AC4240F012818C4B984513D0BB
:1011DC0003F5806398450FD003F5806398450BD0D9
:1011EC0003F58063984507D003F58063984503D0D9
:1011FC008348DF21FFF7C4F87B68122B49D00CD849
:10120C00022B3AD004D8002B4FD0012B1ED067E014
:10121C00032B60D0112B24D062E07B4A934244D044
:10122C0008D8A2F5801293423FD002F58032934247
:10123C0056D13AE0754A934237D002F58032934248
:10124C0033D0A2F5801293424AD12EE0FB68013BC9
:10125C00022B03D96A48E721FFF792F8D7F80C90D4
:10126C003EE0FB68013B022B03D96548EE21FFF7FA
:10127C0087F8FB6803F1040932E0FB68013B022BA1
:10128C0003D95F48F521FFF77BF8FB6803F10809E8
:10129C0026E0FB68013B022B03D95948FC21FFF7E0
:1012AC006FF8FB6803F10C091AE0BB68022B04D938
:1012BC00534840F20911FFF763F8BB6873B1012B77
:1012CC0004D1C8F810504FF0080909E0C8F81450C0
:1012DC004FF0080904E04FF0000901E04FF0040959
:1012EC00FF2C01D8454601E008F10405FF2C01D87C
:1012FC00B00002E0A6F10800800029680F238340AB
:10130C0021EA030209FA00F313432B607B6813F004
:10131C00805F6CD03E4B9A6942F001029A619B69E6
:10132C0003F001030193019BB008821C394B53F865
:10133C00221006F00305AD000F23AB4021EA030297
:10134C002E4B984513D003F5806398450DD003F5CB
:10135C008063984507D003F58063984501D103233A
:10136C0006E0042304E0022302E0012300E0002352
:10137C00AB4013430230274A42F820307B6813F409
:10138C00803F05D002F5806213682343136004E0AC
:10139C00214A136823EA040313607B6813F4003FAB
:1013AC0004D01D4A53682343536004E01A4A53681F
:1013BC0023EA040353607B6813F4801F04D0164A9D
:1013CC0093682343936004E0134A936823EA04036D
:1013DC0093607B6813F4001F04D00F4AD3681C433E
:1013EC00D46004E00C4AD36823EA0404D4600136C8
:1013FC000F2E7FF6E3AE03B0BDE8F083000801408A
:10140C001419000800001110000021100000311008
:10141C0000100240000001400004014070B5064677
:10142C0015460C4621B909484FF4F271FEF7A8FF96
:10143C00012D04D9054840F2E511FEF7A1FF0DB1CD
:10144C00346170BD2404346170BD00BF14190008F0
:10145C00F0B583B00446036813F0130F03D15F4853
:10146C007E21FEF78DFF236813F0010F7ED0636899
:10147C0063B1B3F5807F09D0B3F5007F06D0B3F527
:10148C00407F03D055488421FEF77AFF544BDA692C
:10149C0042F08052DA61DB6903F080530193019BC7
:1014AC00504A136843F480731360FFF727FE054618
:1014BC0005E0FFF723FE401B642800F28880494BAF
:1014CC001B6813F4807FF4D0454B1B6A13F44073F4
:1014DC0045D0626802F440729A4240D04048016A9A
:1014EC0021F440764FF4803393FAA3F2B2FA82F2ED
:1014FC003D4D012745F8227093FAA3F3B3FA83F319
:10150C00002245F82320066211F0010F27D0FFF7C7
:10151C00F5FD054606E0FFF7F1FD401B41F288336F
:10152C00984256D8022393FAA3F293FAA3F3B3FA90
:10153C0083F343F040035B09022B02D1284B1A6A58
:10154C0001E0274B5A6A022393FAA3F3B3FA83F30D
:10155C0003F01F0322FA03F313F0010FDBD0204931
:10156C000B6A23F44072636813430B62236813F015
:10157C00020F15D0A36863B1B3F5804F09D0B3F552
:10158C00004F06D0B3F5404F03D01448BA21FEF7F4
:10159C00F7FE13494B6823F44042A36813434B6096
:1015AC00236813F0100F16D0E368B3F5800F05D045
:1015BC0023B10A484FF48B71FEF7E2FE08494B68E1
:1015CC0023F48002E36813434B60002004E0032003
:1015DC0002E0032000E0002003B0F0BD4C1900082D
:1015EC0000100240007000400004424210B5044656
:1015FC00C31E042B03D90A48BA21FEF7C1FE04F01E
:10160C000700084AD36823F4E0631B041B0C43EA6D
:10161C00002040F0BF6040F40030D06010BD00BF2F
:10162C008419000800ED00E070B504460E4615461E
:10163C000F2A03D91A48D221FEF7A2FE0F2E03D986
:10164C001748D321FEF79CFE164BDB68C3F302232D
:10165C00C3F10702042A28BF0422191D062901D947
:10166C00D81E00E00020012303FA02F2013A3240B6
:10167C0002FA00F183405A1E2A400A43002C06DA73
:10168C0004F00F041201D2B2074B1A5570BD1201AF
:10169C00D2B204F1604404F5614484F8002370BDB7
:1016AC008419000800ED00E014ED00E00138B0F101
:1016BC00807F0AD2064B5860F021064A82F823102C
:1016CC000020986007221A6070470120704700BF05
:1016DC0010E000E000ED00E010B50446042805D051
:1016EC0020B109484FF4DF71FEF74AFE042C05D1F6
:1016FC00064A136843F00403136010BD034A1368D1
:10170C0023F00403136010BD8419000810E000E0FE
:10171C00704700BF08B5FFF7FBFF08BD704700BF5F
:10172C0008B5034B53F82000FFF77AFC08BD00BF47
:10173C00BC190008014B1860704700BFF000002076
:10174C00014B5860704700BFF0000020014B9860BF
:10175C00704700BFF0000020014BD860704700BFFD
:10176C00F000002010B50446032803D905482821B1
:10177C00FEF706FE044B53F824000449FFF7D2FC95
:10178C0010BD00BFD8190008C8190008F0000020CF
:10179C0070B504460E461546032803D905482F217B
:1017AC00FEF7EEFD044B53F824003146EAB2FFF786
:1017BC0035FE70BDD8190008C8190008002103E0D7
:1017CC000B4B5B58435004310A480B4B42189A425E
:1017DC00F6D30A4A02E0002342F8043B084B9A4233
:1017EC00F9D3FEF7DFFC00F00FF8FEF755FD70475C
:1017FC00081A000800000020D0000020D0000020B3
:10180C0000010020FEE7000070B50E4B0E4D0024C9
:10181C00ED1AAD101E46AC4204D056F82420904769
:10182C000134F8E700F016F8084D094B0024ED1AC6
:10183C00AD101E46AC4204D056F82420904701341B
:10184C00F8E770BD001A0008001A0008041A000816
:10185C00001A0008F8B500BFF8BC08BC9E467047DB
:0C186C00F8B500BFF8BC08BC9E467047F1
:1018780002030405060708090A0B0C0D0E0F1010C9
:101888000102000000000000000000000102030443
:101898000607080900000000010203044472697683
:1018A8006572732F53544D3332463178785F48410F
:1018B8004C5F4472697665722F5372632F73746D2F
:1018C8003332663178785F68616C5F7263632E6368
:1018D80000000000447269766572732F53544D33CB
:1018E80032463178785F48414C5F44726976657258
:1018F8002F5372632F73746D3332663178785F6853
:10190800616C5F75736172742E630000447269764E
:101918006572732F53544D3332463178785F48419E
:101928004C5F4472697665722F5372632F73746DBE
:101938003332663178785F68616C5F6770696F2EE3
:1019480063000000447269766572732F53544D33F7
:1019580032463178785F48414C5F447269766572E7
:101968002F5372632F73746D3332663178785F68E2
:10197800616C5F7263635F65782E63004472697699
:101988006572732F53544D3332463178785F48412E
:101998004C5F4472697665722F5372632F73746D4E
:1019A8003332663178785F68616C5F636F72746533
:1019B800782E630004000020480000208C000020DE
:1019C80000080140000C01400010014000140140D3
:1019D800447269766572732F6D6964646C654C61D5
:1019E800796572732F4750494F2F5372632F4D57A4
:0819F8005F4750494F2E6300C8
:041A00007901000860
:041A04005101000884
:101A080000A24A04003801408025000000000000C0
:101A180000000000000000000C00000000000000B2
:101A280000000000000000000000000000000000AE
:101A3800000000000000000000000000000000009E
:101A48000000000000000000004400408025000065
:101A58000000000000000000000000000C00000072
:101A6800000000000000000000000000000000006E
:101A7800000000000000000000000000000000005E
:101A880000000000000000000000000000480040C6
:101A98008025000000000000000000000000000099
:101AA8000C00000000000000000000000000000022
:101AB800000000000000000000000000000000001E
:101AC800000000000000000000000000000000000E
:04000005080017C90F
:00000001FF
