:020000040800F2
:10000000005000205D440008E90D0008ED0D0008D7
:10001000F10D0008F50D0008F90D000800000000C2
:10002000000000000000000000000000FD0D0008BE
:10003000010E000800000000050E0008090E00086F
:10004000A5440008A5440008A5440008A5440008EC
:10005000A5440008A5440008A5440008A5440008DC
:10006000A5440008A5440008A5440008A5440008CC
:10007000A5440008310E0008A5440008A544000866
:10008000A5440008210E0008A5440008A544000866
:10009000A5440008A5440008A5440008A54400089C
:1000A000A5440008A9360008A5440008A544000896
:1000B000B9360008A5440008A5440008A544000876
:1000C000A5440008A5440008A5440008A54400086C
:1000D000A5440008A5440008510E0008410E000880
:1000E000A5440008A5440008A5440008000000003D
:1000F0000000000000000000000000000000000000
:0C01000000000000000000005FF808F1A3
:10010C00044B05481B1A062B02D9044B03B11847A4
:10011C00704700BFC3010020C00100200000000098
:10012C0005490648091A891001EBD171491002D012
:10013C00034B03B118477047C0010020C0010020D9
:10014C000000000010B5064C237843B9FFF7D8FF28
:10015C00044B13B10448AFF300800123237010BD8E
:10016C00C0010020000000000C45000808B5084B39
:10017C001BB108480849AFF300800848036813B95D
:10018C00BDE80840CCE7064B002BF9D09847F7E7C1
:10019C00000000000C450008C4010020C001002034
:1001AC00000000000F4B1A6842F001021A605968F7
:1001BC000D4A0A405A601A6822F0847222F4803286
:1001CC001A601A6822F480221A605A6822F4FE021D
:1001DC005A604FF41F029A604FF00062034B9A6012
:1001EC00704700BF001002400000FFF800ED00E077
:1001FC0000B583B01C4B9A6942F001029A619B696D
:10020C0003F001030193019B032002F083FB6FF0C9
:10021C000B0000210A4602F09BFB6FF00A00002144
:10022C000A4602F095FB6FF0090000210A4602F025
:10023C008FFB6FF0040000210A4602F089FB6FF07F
:10024C00030000210A4602F083FB6FF0010000213D
:10025C000A4602F07DFB4FF0FF3000210A4602F007
:10026C0077FB03B05DF804FB0010024010B588B0BA
:10027C000368204A934223D11F4CA36943F008031F
:10028C00A361A36903F008030193019B4FF440732E
:10029C0004931223059303230793184804A902F02F
:1002AC00D5F8174A536843F002035360E36943F4EB
:1002BC000013E361E36903F400130293029B17E05C
:1002CC00104A934214D14FF44063049312230593C4
:1002DC0003230793094804A902F0B8F8064BDA691E
:1002EC0042F48002DA61DB6903F480030393039B1D
:1002FC0008B010BD0054004000100240000C01403A
:10030C000000014000580040F0B58DB00446036871
:10031C00704A934229D1704B9A6942F480429A6197
:10032C009A6902F480420192019A9A6942F004029D
:10033C009A619B6903F004030293029B4FF40073D0
:10034C0008930223099303230B93644C204608A9BA
:10035C0002F07CF84FF480630893002309930A930E
:10036C00204608A902F072F8B1E05D4A934259D1D7
:10037C00594EF36943F40033F361F36903F400332A
:10038C000393039BB36943F00403B361B36903F0B4
:10039C0004030493049B042308930223099303236B
:1003AC000B934E4F384608A902F050F808230893D7
:1003BC00002509950A95384608A902F047F8736993
:1003CC0043F001037361736903F001030593059B0B
:1003DC00444E454B336010277760B5608023F36043
:1003EC0035617561B561F561304602F02DFE26630D
:1003FC00746211202946012202F0AAFA112002F09F
:10040C00E9FA384629462A4602F0A2FA384602F0A2
:10041C00E1FA26202946012202F09AFA262002F05F
:10042C00D9FA54E0314A934251D12B4BDA6942F458
:10043C008022DA61DA6902F480220692069A9A69BD
:10044C0042F010029A619B6903F010030793079B1B
:10045C004FF4806308930223099303230B93244DD9
:10046C00284608A901F0F2FF4FF400630893002618
:10047C0009960A96284608A901F0E8FF1D4A536818
:10048C0023F0300343F0100353601B4D1B4B2B60C8
:10049C006E60AE608023EB602E616E61AE614FF4D6
:1004AC000053EB61284602F0CFFD65636C620D20B2
:1004BC003146324602F04CFA0D2002F08BFA27201E
:1004CC003146012202F044FA272002F083FA0DB0E3
:1004DC00F0BD00BF00380140001002400008014090
:1004EC0000440040DC010020800002400048004035
:1004FC0000100140000001401402002030000240B6
:10050C0008B5034803494FF4A27203F0EDFF08BD90
:10051C00940200206C450008002209E0930003F1CE
:10052C00006303F5FE331968094B43F822100132BE
:10053C000C2AF3DD002307E0064A52F82320044975
:10054C0051F8231011600133082BF5DD704700BF03
:10055C004C020020140000200B4B1A680B4BA3FB21
:10056C000213DB0803EB83035B009A42F4D0064BC7
:10057C001A68064BA3FB0213DB0803EB83035B0037
:10058C009A42F4D1704700BF3C080020CDCCCCCCB3
:10059C00034B19680B18024A12689342FAD8704739
:1005AC003C08002010B584B004460A461C31936800
:1005BC0050680090106801900291034821460C325B
:1005CC0003F0A6F904B010BDB046000830B583B0F6
:1005DC000546374801210A4603F09AF93548364951
:1005EC00364A03F095F9364803F092F9002414E0EA
:1005FC00AC4203D1334803F08BF902E0324803F0EC
:10060C0087F9082C08DC2046304B53F82410FFF7F0
:10061C00C9FF2F4803F07CF90134082CE8DD03F006
:10062C0057F923480D21012203F072F9294B1B784D
:10063C0013B1012B32D039E0274803F069F9274C6C
:10064C00274B009320462749274A284B03F060F993
:10065C00274B009320462749274A284B03F058F98B
:10066C00274B009320462749274A284B03F050F983
:10067C00274B009320462749274A284B03F048F97B
:10068C00274B009320462749274A284B03F040F973
:10069C00274803F03DF903F01BF907E0254803F068
:1006AC0037F9254803F05EFB03F012F903B030BDB7
:1006BC00D4460008E0460008084700081047000828
:1006CC00184700084C470008504700081400002049
:1006DC00784E0008D80300205447000898470008BB
:1006EC00D0470008B4470008BC470008C8470008BA
:1006FC00F0470008DC470008E0470008EC4700081A
:10070C0014480008FC47000800480008104800087E
:10071C003448000824480008284800082C480008E1
:10072C0060480008444800084C4800085848000835
:10073C0070480008A8480008B40100202DE9F047D3
:10074C0082B06D4803F0E4F86C480B21012203F0F1
:10075C00DFF86B4803F0DCF86A4803F0D9F803F0D3
:10076C00B7F8664D284601210A4603F0D1F8664CCD
:10077C0061792279E379A0790090644803F0C8F894
:10078C006779FFB294F804805FFA88F8E679F6B2DC
:10079C0094F806905FFA89F928460221012203F0A9
:1007AC00B7F8DFF88CA1504603F0B2F8584C20464D
:1007BC0003F0AEF8204603F0ABF8204603F0A8F89F
:1007CC00544803F0A5F8204603F0A2F8204603F0A5
:1007DC009FF8204603F09CF8504603F099F84E4CD5
:1007EC00A16A626A520028460A39173A03F090F857
:1007FC00DFF840A1504603F08BF8216BE26A5200FF
:10080C0028460A39033A03F083F8504603F080F87F
:10081C00A7F10D03062B0FD8B8F1130F0CDCB8F1B0
:10082C000C0F09DD7A002846A8F10A01173A03F0EB
:10083C006FF83A4803F06CF8A6F10D03062B25D897
:10084C00B9F1130F22DCB9F10C0F1FDD72002B482C
:10085C00A9F10A01033A03F05BF8304803F058F8A9
:10086C0003F036F8FFF778FEFFF776FEFFF774FE1D
:10087C00FFF772FEFFF770FEFFF76EFEFFF76CFEE0
:10088C00FFF76AFEFFF768FEFFF766FEFFF764FEF0
:10089C001D4B9B7813F0020F15D11B4A51791E4B3F
:1008AC00596211799962D179D96292791A631C488B
:1008BC001C494FF4CC721C4B03F04AF84FF47A707D
:1008CC00FFF766FE13E0104B9B7813F0040F7FF4D8
:1008DC0048AF1348134940F29D12144B03F038F8FB
:1008EC004FF47A70FFF754FE034803F011F8002020
:1008FC0002B0BDE8F08700BFEC480008D446000801
:10090C00F448000804490008B401002024490008F8
:10091C0064490008904900084C020020CC490008AA
:10092C00DC4900085C450008E0490008EC49000877
:10093C0038490008BC49000808B5FFF7FFFE03461C
:10094C0000B10123184608BD08B5044804494822E3
:10095C0002F0EAFE00B1012008BD00BF4C020020ED
:10096C0000FC010808B5002307E0064A52F82320D2
:10097C001168054A42F823100133082BF5DDFFF707
:10098C00E3FF08BD140000204C02002038B58C4B4E
:10099C005A7812F0010F0CBF012500255B7813F07B
:1009AC00040F0CBF0124002405B91CB3854B196836
:1009BC0085480331012202F0ABFF844802F0A8FF06
:1009CC0035B1804A1368013B23EAE373136007E0F7
:1009DC0034B17C4A13680133082BA8BF0823136079
:1009EC00784B196878480331012202F091FF78485E
:1009FC0002F08EFF724BDA7812F0080F0CBF012157
:100A0C000021DA7812F0040F0CBF01220022D878F2
:100A1C0010F0020F0CBF01200020DB7813F0010F47
:100A2C000CBF0123002319B912B908B9002B4ED001
:100A3C0060B1644B1A68674B53F8222051681368F5
:100A4C0001338B42A8BF0B46136028E063B15D4BAA
:100A5C001A68604B53F82220516813680A338B4292
:100A6C00A8BF0B4613601AE061B1564B1A68594B7C
:100A7C0053F8222091681368013B8B42B8BF0B4698
:100A8C0013600CE05AB14F4B1A68524B53F82220AA
:100A9C00916813680A3B8B42B8BF0B4613604A4DF2
:100AAC00484C216828460331032202F031FF2368A9
:100ABC001846484A52F82310FFF774FD216828465F
:100ACC000331022202F024FF434802F021FF3E488A
:100ADC001421012202F01CFF394B9B7813F0010FFB
:100AEC000CD13E483E494FF48F723E4B02F030FF22
:100AFC00FFF706FD334B1868FFF768FD304B9B780A
:100B0C0013F0080F23D1FFF72DFF80B9334D344C70
:100B1C00284621464FF49372334B02F019FF2846B6
:100B2C00214640F22712314B02F012FFFEE72C4C0B
:100B3C002F4821464FF496722E4B02F009FF27489E
:100B4C00214640F22D12294B02F002FFFEE71C4B0E
:100B5C005B7813F0080F12D1204821494FF49A7298
:100B6C00254B02F0F5FE4FF47A70FFF711FDFFF7FD
:100B7C00E3FE144B1868FFF729FD012038BD02F085
:100B8C00A7FE0F4B9B7813F0040F17D100240D4BCD
:100B9C001C60124812494FF4A072184B02F0D8FE98
:100BAC004FF47A70FFF7F4FC154802F0B1FE0648DA
:100BBC0001210A4602F0ACFE204638BD012038BDAA
:100BCC00B4010020DC030020D4460008504D00087E
:100BDC00F849000814000020FC490008DC49000812
:100BEC0050450008004A0008144A0008244A00082E
:100BFC00304A0008344A0008444A0008EC4900080E
:100C0C00EC48000870B54F4802F082FE0020FFF758
:100C1C00DDFC002501262C468CE04B4B5B7813F059
:100C2C00010F2ED0484B5B7813F0040F2BD0464BA2
:100C3C00DB7813F0080F28D0434BDB7813F0040F4C
:100C4C0025D0414BDB7813F0020F22D03E4BDB78E2
:100C5C0013F0010F1FD03C4B9B7813F0010F1CD0ED
:100C6C00394B9B7813F0080F19D0374B5B7813F086
:100C7C00080F16D0344B9B7813F0040F13D10123BB
:100C8C0012E0012310E001230EE001230CE001230C
:100C9C000AE0012308E0012306E0012304E001231C
:100CAC0002E0012300E000239BB15CB11E2C0EDDA1
:100CBC00264B83FB0432E317C3EB620303EB830382
:100CCC009C4204D1FFF762FE061C18BF01260134BA
:100CDC0000E00024ADB91C4B9B7813F0020F10D12F
:100CEC001B4B1B781BB90122194B1A7002E0002216
:100CFC00174B1A70134802F00BFE0020FFF766FC2E
:100D0C000125114B9B7813F0020F00D00025104BDE
:100D1C001B78012B0CD10F480D21012202F0F8FD9C
:100D2C000D4802F0F5FD084803F01CF802F0D0FD68
:100D3C00FFF712FC002E7FF470AF0EB1002070BDD7
:100D4C00012070BDEC480008B4010020676666669F
:100D5C00D8030020D4460008A848000808B5FFF7BF
:100D6C00CFFBFFF7D9FB08BD08B5FFF74BFF08BD5C
:100D7C0008B5FFF7F3FF002008BD00BF08B5164B00
:100D8C00DB7813F0020F24D1134BDB7813F0010F37
:100D9C001FD1114BDB7813F0080F1AD10E4BDB78F7
:100DAC0013F0040F15D10C4BDB7813F0020FFAD0B3
:100DBC00094BDB7813F0010FF5D0074BDB7813F000
:100DCC00080FF0D0044BDB7813F0040FEBD0FFF7D7
:100DDC00CBFF002008BD00BFB4010020704700BF4E
:100DEC00FEE700BFFEE700BFFEE700BFFEE700BF67
:100DFC00704700BF704700BF704700BF08B501F0D7
:100E0C0009FB01F02FFE024A13680133136008BD81
:100E1C003C08002008B5024B186B02F0E5F908BD40
:100E2C002C01002008B5024B586B02F0DDF908BD0F
:100E3C006C01002008B5024801F0A0F908BD00BF04
:100E4C006C01002008B5024801F098F908BD00BFFC
:100E5C002C010020FEE700BF30B583B0044620B95A
:100E6C00BA484FF48771FFF7F5FF23683BB113F0D5
:100E7C000F0F04D1B54840F20F11FFF7EBFF2368B9
:100E8C0013F0010F00F0A380636853B1B3F5803FFA
:100E9C0007D0B3F5A02F04D0AC4840F21511FFF7E2
:100EAC00D9FFAB4B5B6803F00C03042B0AD0A84BA7
:100EBC005B6803F00C03082B1BD1A54B5B6813F488
:100ECC00803F16D04FF4003393FAA3F3A04B1A686B
:100EDC004FF4003393FAA3F3B3FA83F303F01F0335
:100EEC0022FA03F313F0010F71D06368002B6ED15B
:100EFC0019E36368B3F5803F05D1954A136843F451
:100F0C008033136026E063B903F1804303F50433A7
:100F1C001A6822F480321A601A6822F480221A604D
:100F2C0018E0B3F5A02F0CD103F18043A3F53C33AB
:100F3C001A6842F480221A601A6842F480321A60ED
:100F4C0008E0834B1A6822F480321A601A6822F483
:100F5C0080221A606368EBB101F064FA054605E083
:100F6C0001F060FA401B642800F2DF824FF400337A
:100F7C0093FAA3F3764B1A684FF4003393FAA3F366
:100F8C00B3FA83F303F01F0322FA03F313F0010FF8
:100F9C00E6D01CE001F046FA054605E001F042FA05
:100FAC00401B642800F2C3824FF4003393FAA3F37E
:100FBC00674B1A684FF4003393FAA3F3B3FA83F335
:100FCC0003F01F0322FA03F313F0010FE6D1236899
:100FDC0013F0020F00F0A0802369012B04D95B48A9
:100FEC0040F24911FFF736FF63691F2B04D95748AC
:100FFC004FF4A571FFF72EFF554B5B6813F00C0FE8
:10100C000AD0534B5B6803F00C03082B27D1504BD1
:10101C005B6813F4803F22D1022393FAA3F34C4B69
:10102C001A68022393FAA3F3B3FA83F303F01F03B2
:10103C0022FA03F313F0010F03D02369012B40F0C4
:10104C0078824348036823F0F8016369F82292FA26
:10105C00A2F2B2FA82F293400B4303605CE0236984
:10106C009BB3012292FAA2F3B3FA83F39B0003F130
:10107C00844303F584031A6001F0D4F9054605E0B6
:10108C0001F0D0F9401B022800F25582022393FA9A
:10109C00A3F32F4B1A68022393FAA3F3B3FA83F347
:1010AC0003F01F0322FA03F313F0010FE8D02848D2
:1010BC00036823F0F8016369F82292FAA2F2B2FAFB
:1010CC0082F293400B43036026E0012393FAA3F3CF
:1010DC00B3FA83F39B0003F1844303F584030022EA
:1010EC001A6001F09FF9054605E001F09BF9401BE1
:1010FC00022800F22282022393FAA3F3144B1A68FB
:10110C00022393FAA3F3B3FA83F303F01F0322FA37
:10111C0003F313F0010FE8D1236813F0080F5CD030
:10112C00A369012B04D909484FF4C571FFF792FE4E
:10113C00A3696BB3012292FAA2F3B3FA83F30549C4
:10114C0041F8232001F06EF905460BE0504A0008E7
:10115C00001002408004424201F064F9401B022856
:10116C0000F2ED81022393FAA3F293FAA3F2A34ABD
:10117C00526A93FAA3F3B3FA83F303F01F0322FA30
:10118C0003F313F0010FE7D0012001F051F924E033
:10119C00012393FAA3F3B3FA83F30021984A42F89C
:1011AC00231001F03FF9054605E001F03BF9401B27
:1011BC00022800F2C681022393FAA3F293FAA3F257
:1011CC008E4A526A93FAA3F3B3FA83F303F01F0324
:1011DC0022FA03F313F0010FE7D1236813F0040F85
:1011EC0000F0A980E368012B06D9052B04D08548B3
:1011FC0040F2B711FFF72EFE804BDA6942F08052B5
:10120C00DA61DB6903F080530193019B7E4A13681A
:10121C0043F48073136001F005F9054605E001F015
:10122C0001F9401B642800F28E81774B1B6813F484
:10123C00807FF4D0E368012B05D1704A136A43F028
:10124C000103136222E063B903F1804303F5043315
:10125C001A6A22F001021A621A6A22F004021A6255
:10126C0014E0052B09D1654B1A6A42F004021A628C
:10127C001A6A42F001021A6208E0604B1A6A22F004
:10128C0001021A621A6A22F004021A62E3684BB372
:10129C0001F0C8F8054607E001F0C4F8401B41F224
:1012AC008833984200F25181022393FAA3F293FA05
:1012BC00A3F3B3FA83F343F040035B09022B02D18F
:1012CC004E4B1A6A01E04D4B5A6A022393FAA3F370
:1012DC00B3FA83F303F01F0322FA03F313F0010FA5
:1012EC00DAD028E001F09EF8054607E001F09AF804
:1012FC00401B41F28833984200F22981022393FA71
:10130C00A3F293FAA3F3B3FA83F343F040035B091C
:10131C00022B02D1394B1A6A01E0384B5A6A02236C
:10132C0093FAA3F3B3FA83F303F01F0322FA03F344
:10133C0013F0010FDAD1E369022B04D9314840F2E2
:10134C004721FFF787FDE369002B00F002812B4A50
:10135C00526802F00C02082A00F0FD80022B40F0CB
:10136C00B780236A3BB1B3F5803F04D025484FF4D6
:10137C001471FFF76FFD636A73B3B3F5802F2BD035
:10138C00B3F5002F28D0B3F5402F25D0B3F5801F2F
:10139C0022D0B3F5A01F1FD0B3F5C01F1CD0B3F5DE
:1013AC00E01F19D0B3F5001F16D0B3F5101F13D0E2
:1013BC00B3F5201F10D0B3F5301F0DD0B3F5401F7F
:1013CC000AD0B3F5501F07D0B3F5601F04D00D48F9
:1013DC0040F25121FFF73EFD4FF0807393FAA3F3D7
:1013EC00B3FA83F39B0003F1844303F584030022D7
:1013FC001A6001F017F805460EE000BF001002401D
:10140C0080044242504A00080070004001F00AF883
:10141C00401B022800F2A1804FF0007393FAA3F353
:10142C00514B1A684FF0007393FAA3F3B3FA83F39A
:10143C0003F01F0322FA03F313F0010FE6D1236A22
:10144C00B3F5803F10D1A3683BB1B3F5003F04D096
:10145C00464840F26721FFF7FDFC43494B6823F4F3
:10146C000032A36813434B603F48436823F4741164
:10147C00236A626A13430B4343604FF0807393FA01
:10148C00A3F3B3FA83F39B0003F1844303F58403C2
:10149C0001221A6000F0C6FF044604E000F0C2FF0F
:1014AC00001B02285BD84FF0007393FAA3F32E4B6A
:1014BC001A684FF0007393FAA3F3B3FA83F303F0B3
:1014CC001F0322FA03F313F0010FE7D0002049E0C9
:1014DC004FF0807393FAA3F3B3FA83F39B0003F1F9
:1014EC00844303F5840300221A6000F09BFF04463A
:1014FC0004E000F097FF001B022832D84FF0007375
:10150C0093FAA3F3184B1A684FF0007393FAA3F3F2
:10151C00B3FA83F303F01F0322FA03F313F0010F62
:10152C00E7D100201EE001201CE003201AE003207C
:10153C0018E0012016E0032014E0032012E0032041
:10154C0010E003200EE003200CE003200AE003204F
:10155C0008E0002006E0012004E0032002E0032064
:10156C0000E0032003B030BD00100240504A0008D8
:10157C0030B486B01E4D02AC28686968AA68EB6866
:10158C000FC42B8AADF804301A4B5A6802F00C03C6
:10159C00082B28D102F470134FF4701191FAA1F1B9
:1015AC00B1FA81F1CB4006A90B4413F8103C12F4AC
:1015BC00803F14D00F4A526802F400324FF40031CD
:1015CC0091FAA1F1B1FA81F1CA4006A90A4412F8C4
:1015DC00140C094AB2FBF0F003FB00F004E00748DE
:1015EC0000FB03F000E0044806B030BC704700BFBD
:1015FC00244500080010024000127A0000093D004A
:10160C0070B50D46044620B9A1484FF42F71FFF771
:10161C0021FC236813F00F0F04D19D4840F2BD212B
:10162C00FFF718FC022D04D9994840F2BE21FFF7B0
:10163C0011FC984B1B6803F00703AB420BD2954A85
:10164C00136823F007032B431360136803F007039D
:10165C00AB4240F00C81236813F0020F1DD0A3683D
:10166C00A3B1802B12D0902B10D0A02B0ED0B02B6E
:10167C000CD0C02B0AD0D02B08D0E02B06D0F02BEE
:10168C0004D0834840F2D721FFF7E4FB82494B6832
:10169C0023F0F002A36813434B60236813F0010F8F
:1016AC0000F081806368022B04D9794840F2DE2176
:1016BC00FFF7D0FB6268012A13D14FF4003393FA81
:1016CC00A3F3754B19684FF4003393FAA3F3B3FAF1
:1016DC0083F303F01F0321FA03F313F0010F28D156
:1016EC00C7E0022A13D14FF0007393FAA3F36A4BAD
:1016FC0019684FF0007393FAA3F3B3FA83F303F072
:10170C001F0321FA03F313F0010F12D1B3E00223EC
:10171C0093FAA3F3604B1968022393FAA3F3B3FA79
:10172C0083F303F01F0321FA03F313F0010F00F00E
:10173C00A48059494B6823F0030313434B6000F01A
:10174C0071FE06466368012B0FD107E000F06AFEBC
:10175C00801B41F28833984200F291804E4B5B68BB
:10176C0003F00C03042BF1D11DE0022B16D107E082
:10177C0000F058FE801B41F28833984200F28180C1
:10178C00454B5B6803F00C03082BF1D10BE000F028
:10179C0049FE801B41F28833984274D83E4B5B68FB
:1017AC0013F00C0FF3D13B4B1B6803F00703AB4258
:1017BC000AD9384A136823F007032B4313601368C4
:1017CC0003F00703AB4260D1236813F0040F19D068
:1017DC00E36883B1B3F5806F0DD0B3F5A06F0AD079
:1017EC00B3F5C06F07D0B3F5E06F04D0284840F2D2
:1017FC003231FFF72FFB28494B6823F4E062E36892
:10180C0013434B60236813F0080F1AD0236983B17C
:10181C00B3F5806F0DD0B3F5A06F0AD0B3F5C06FE0
:10182C0007D0B3F5E06F04D0194840F23931FFF717
:10183C0011FB194A536823F46053216943EAC1032D
:10184C005360FFF795FE144B5B6803F0F003F02236
:10185C0092FAA2F2B2FA82F2D340104AD35CD84088
:10186C000F4B1860002000F0AFFD002070BD012070
:10187C0070BD012070BD012070BD012070BD032022
:10188C0070BD032070BD032070BD012070BD00BF72
:10189C00504A000800200240001002403845000861
:1018AC0000000020014B1868704700BF00000020AA
:1018BC0008B5FFF7F7FF074B5B6803F4E0634FF4E1
:1018CC00E06292FAA2F2B2FA82F2D340024AD35CFC
:1018DC00D84008BD001002404845000808B5FFF785
:1018EC00E1FF074B5B6803F460534FF4605292FACC
:1018FC00A2F2B2FA82F2D340024AD35CD84008BDBD
:10190C0000100240484500080022044BDA61044AEA
:10191C00136943F00103136101807047E003002059
:10192C0000200240134BDB6813F0100F04D0124A56
:10193C00D36943F00203D3610E4BDB6813F0040F41
:10194C0004D00D4AD36943F00103D361094BDB6921
:10195C0013F0010F09D0084AD36943F00403D36193
:10196C00044AD36923F00103D3611422014BDA60DA
:10197C00704700BF00200240E0030020074B1B69AA
:10198C0013F0800F07D0054B054A5A6002F18832DC
:10199C005A60002070470120704700BF00200240B1
:1019AC0023016745034A136943F080031361002048
:1019BC00704700BF0020024038B5044600F032FDED
:1019CC00054608E0B4F1FF3F05D024B300F02AFD32
:1019DC00401BA04221D8134BDB6813F0010FF1D14F
:1019EC00104BDB6813F0200F02D020220D4BDA6075
:1019FC000C4BDB6813F0100F09D10A4BDB6913F0A9
:101A0C00010F04D1074BDB6813F0040F07D0FFF76D
:101A1C0089FF012038BD032038BD032038BD0020CC
:101A2C0038BD00BF002002402DE9F843364D2D7E15
:101A3C00012D66D01E4690460F4604460122324BBD
:101A4C001A76431E022B03D93048C421FFF702FA41
:101A5C00B7F1006F16D32E4B1B88802B03D12D4B67
:101A6C009F420FD812E0402B03D12B4B9F4209D839
:101A7C000CE0202B03D1294B9F4203D806E0284BC6
:101A8C009F4203D92148C521FFF7E4F94CF25030AD
:101A9C00FFF792FF034670BB012C04D0022C05D13A
:101AAC004FF0020904E04FF0010901E04FF0040986
:101ABC0000241EE02101C1F12002A1F1200328FA2B
:101ACC0001F106FA02F2114326FA03F3194307EB6C
:101ADC00440089B2FFF718FF4CF25030FFF76CFF4F
:101AEC00104B1D6925F001051D61034618B9013421
:101AFC00E4B24C45DED30021034A11761846BDE80A
:101B0C00F8830220BDE8F883E0030020884A00082F
:101B1C00E0F7FF1FFFFF0108FFFF0008FF7F000831
:101B2C00FF3F00080020024090F83930DBB2122B46
:101B3C0001D0322B2AD18368B3F5805F0FD1036AB1
:101B4C0002681B88C3F30803536003691BB9036A5B
:101B5C000233036209E0036A0133036205E00268A1
:101B6C00036A591C01621B785360C38C013B9BB206
:101B7C00C3846BB90268D36823F08003D360026816
:101B8C00D36843F04003D3600020704702207047B5
:101B9C00002070472DE9F84381464268834B9A42F6
:101BAC0004D9834840F25271FFF754F9D9F80C303C
:101BBC003BB1B3F5005F04D07D4840F25371FFF7A1
:101BCC0049F9D9F8103053B1B3F5806F07D0B3F59C
:101BDC00C06F04D0764840F25471FFF73BF9D9F846
:101BEC00143033F00C0200D123B9714840F2557116
:101BFC00FFF730F9D9F800100B6923F44052D9F8EB
:101C0C000C3013430B61D9F80820D9F810301A4363
:101C1C00D9F814301343D9F80010CA6822F4B05222
:101C2C0022F00C021343CB60D9F800104B6923F45B
:101C3C004072D9F8183013434B61D9F800505D4B02
:101C4C009D4259D1FFF74AFE00EB800000EB80006B
:101C5C00D9F80440A400B0FBF4F4574EA6FB0434AE
:101C6C0064092401FFF73AFE00EB800000EB8000D2
:101C7C00D9F804309B00B0FBF3F7FFF72FFE00EB15
:101C8C00800000EB8000D9F804309B00B0FBF3F32C
:101C9C00A6FB03235B094FF0640808FB13731B01BD
:101CAC003233A6FB03235B0903F0F0031C44FFF75C
:101CBC0015FE00EB800000EB8000D9F804309B008F
:101CCC00B0FBF3F7FFF70AFE00EB800000EB80009F
:101CDC00D9F804309B00B0FBF3F3A6FB03235B099C
:101CEC0008FB13731B013233A6FB0323C3F343130B
:101CFC001C44AC60BDE8F883FFF7DAFD00EB800014
:101D0C0000EB8000D9F80440A400B0FBF4F42A4E98
:101D1C00A6FB043464092401FFF7CAFD00EB800024
:101D2C0000EB8000D9F804309B00B0FBF3F7FFF711
:101D3C00BFFD00EB800000EB8000D9F804309B0065
:101D4C00B0FBF3F3A6FB03235B094FF0640808FB1D
:101D5C0013731B013233A6FB03235B0903F0F0035F
:101D6C001C44FFF7A5FD00EB800000EB8000D9F8C8
:101D7C0004309B00B0FBF3F7FFF79AFD00EB8000FB
:101D8C0000EB8000D9F804309B00B0FBF3F3A6FB0A
:101D9C0003235B0908FB13731B013233A6FB0323DC
:101DAC00C3F343131C44AC60BDE8F88320AA440081
:101DBC00C04A0008003801401F85EB51002872D042
:101DCC0010B5044683690BB30368384A93420CD0B0
:101DDC00A2F57442934208D002F58062934204D07B
:101DEC00334840F20711FFF735F8A369FBB1B3F59F
:101DFC00807F1CD0B3F5007F19D0B3F5407F16D08F
:101E0C002B484FF48471FFF725F810E00368274A3C
:101E1C0093420CD0A2F57442934208D002F5806232
:101E2C00934204D022484FF48671FFF713F8A3684D
:101E3C003BB1B3F5805F04D01D484FF48771FFF7B9
:101E4C0009F8E36923B11A4840F20F11FFF702F8C1
:101E5C0094F8393013F0FF0F05D1002384F8383093
:101E6C002046FEF751FA022384F839302268D368F1
:101E7C0023F40053D3602046FFF78CFE22681369CD
:101E8C0023F4904313612268536923F02A035361AE
:101E9C002268D36843F40053D3600020E06301232D
:101EAC0084F8393010BD0120704700BF0038014064
:101EBC00C04A000810B50446134690F83920D2B237
:101ECC00012A01D0222A36D1002936D0002B36D057
:101EDC0094F83820012A34D0012284F83820216269
:101EEC00A384E3840022E26394F83920D2B2222A3C
:101EFC0003D1322284F8392002E0122284F83920EE
:101F0C00226B11489062226B1048D062226B1048F1
:101F1C0010632268206B043201F028F923686FF0FB
:101F2C0040021A602268536943F080035361002019
:101F3C0084F8380010BD022010BD012010BD012016
:101F4C0010BD022010BD00BFF91F00085920000869
:101F5C006921000838B504460D46134690F839201F
:101F6C00D2B2012A01D0122A32D1002D32D0002B4C
:101F7C0032D094F83820012A30D0012284F838204D
:101F8C00A562A3850022E26394F83920D2B2122A0A
:101F9C0003D1322284F8392002E0222284F839203D
:101FAC00626B0F499162626B0E49D162626B0E4992
:101FBC0011632168606B04312A4601F0D7F822685E
:101FCC00536943F040035361002084F8380038BD56
:101FDC00022038BD012038BD012038BD022038BD9B
:101FEC0065200008592100086921000808B5436ADA
:101FFC000268126812F0200F0CD10022DA841968E2
:10200C004A6922F080024A611A68D36843F040039F
:10201C00D36008BD184602F017FA08BD08B502686F
:10202C00D36823F04003D36090F83930DBB2322B05
:10203C0003D1222380F8393002E0012380F83930B3
:10204C0002F002FA002008BD704700BF08B5406AD4
:10205C00FFF7FAFF08BD00BF08B5436A02681268B3
:10206C0012F0200F12D10022DA8519684A6922F089
:10207C0040024A6193F83920D2B2322A03D112229B
:10208C0083F8392002E0012283F83920184602F047
:10209C00D1F908BD08B590F83930DBB2222B01D04C
:1020AC00322B4CD18368B3F5805F13D1836A0269FC
:1020BC0042B902685268C2F308021A80836A02337A
:1020CC00836218E002685268D2B21A80836A0133C4
:1020DC00836210E0036933B9836A5A1C8262026816
:1020EC0052681A7007E0826A531C836203685B684B
:1020FC0003F07F031370C38D013B9BB2C38503BBFD
:10210C000268D36823F02003D36090F83930DBB237
:10211C00322B03D1122380F839300CE00268D368DB
:10212C0023F48073D3600268536923F00103536175
:10213C00012380F8393002F07DF9002008BD02201F
:10214C0008BD002008BD00BF704700BF08B5406A3D
:10215C00FFF7FAFF08BD00BF704700BF08B5406A23
:10216C000023C385C384012380F83930C36B43F04B
:10217C001003C363FFF7F0FF08BD00BF10B582B0BA
:10218C00044603681968DA6802F4807211F0010FD2
:10219C0004D01AB1C26B42F00102C26319685A69C9
:1021AC0002F0010211F0020F04D01AB1E16B41F000
:1021BC000401E163196811F0040F04D01AB1E16B4A
:1021CC0041F00201E163196811F0080F04D01AB153
:1021DC00E26B42F00802E2631A68DB6803F020034A
:1021EC0012F0200F03D013B12046FFF753FF2368E2
:1021FC001A68DB6803F0800312F0800F03D013B170
:10220C002046FFF791FC23681A68DB6803F0400353
:10221C0012F0400F03D013B12046FFF7FFFEE36B23
:10222C005BB123681A6801925B680193019B0123DF
:10223C0084F839302046FFF78FFF02B010BD00BF85
:10224C00704700BF704700BF704700BF704700BFAA
:10225C00704700BF10B5044603681A6912F0020FEC
:10226C0017D0DA6812F0020F13D06FF002021A6165
:10227C000123037603689B6913F0030F02D0FFF769
:10228C00E3FF04E0FFF7DEFF2046FFF7DFFF00234C
:10229C00237623681A6912F0040F19D0DA6812F049
:1022AC00040F15D06FF004021A6102232376236801
:1022BC009B6913F4407F03D02046FFF7C5FF05E070
:1022CC002046FFF7BFFF2046FFF7C0FF0023237611
:1022DC0023681A6912F0080F19D0DA6812F0080F87
:1022EC0015D06FF008021A61042323762368DB698A
:1022FC0013F0030F03D02046FFF7A6FF05E020469E
:10230C00FFF7A0FF2046FFF7A1FF002323762368E9
:10231C001A6912F0100F19D0DA6812F0100F15D0DC
:10232C006FF010021A61082323762368DB6913F41B
:10233C00407F03D02046FFF787FF05E02046FFF7DC
:10234C0081FF2046FFF782FF0023237623681A695A
:10235C0012F0010F09D0DA6812F0010F05D06FF0FE
:10236C0001021A612046FFF76BFF23681A6912F00D
:10237C00800F09D0DA6812F0800F05D06FF0800260
:10238C001A61204600F04CFE23681A6912F0400FC7
:10239C0009D0DA6812F0400F05D06FF040021A61D4
:1023AC002046FFF755FF23681A6912F0200F09D059
:1023BC00DA6812F0200F05D06FF020021A61204667
:1023CC0000F02CFE10BD00BF10B50446FFF76AFAF2
:1023DC00064BA3FB0030800900F010FB4FF0FF30E0
:1023EC002146002200F0B4FA002010BDD34D62103B
:1023FC0008B5074A136843F010031360032000F07C
:10240C0089FA0020FFF7E0FFFDF7F2FE002008BD7F
:10241C0000200240024A136801331360704700BF6A
:10242C0000040020014B1868704700BF0004002016
:10243C0010B582B00190FFF7F5FF0446FFF7F2FFED
:10244C00001B019B9842F9D302B010BD2DE9F0435B
:10245C0083B080460F46B34B984213D003F580638C
:10246C0098420FD003F5806398420BD003F580633C
:10247C00984207D003F58063984203D0AA48CF2135
:10248C00FEF7E8FC3B881BB9A748D021FEF7E2FC1D
:10249C007B68012B22D9112B20D0022B1ED0122BA2
:1024AC001CD0A24A934219D002F58012934215D047
:1024BC0002F58012934211D0A2F5F81293420DD07E
:1024CC0002F58012934209D002F58012934205D096
:1024DC00032B03D09448D121FEF7BCFC4FF000092C
:1024EC004E4619E10125B5403C682C40AC4240F009
:1024FC0012818C4B984513D003F5806398450FD00F
:10250C0003F5806398450BD003F58063984507D09D
:10251C0003F58063984503D08348DF21FEF79AFCCE
:10252C007B68122B49D00CD8022B3AD004D8002B44
:10253C004FD0012B1ED067E0032B60D0112B24D081
:10254C0062E07B4A934244D008D8A2F580129342B1
:10255C003FD002F58032934256D13AE0754A93420D
:10256C0037D002F58032934233D0A2F580129342D9
:10257C004AD12EE0FB68013B022B03D96A48E721C4
:10258C00FEF768FCD7F80C903EE0FB68013B022B91
:10259C0003D96548EE21FEF75DFCFB6803F10409E5
:1025AC0032E0FB68013B022B03D95F48F521FEF7B3
:1025BC0051FCFB6803F1080926E0FB68013B022B88
:1025CC0003D95948FC21FEF745FCFB6803F10C09C3
:1025DC001AE0BB68022B04D9534840F20911FEF7EC
:1025EC0039FCBB6873B1012B04D1C8F810504FF003
:1025FC00080909E0C8F814504FF0080904E04FF03E
:10260C00000901E04FF00409FF2C01D8454601E018
:10261C0008F10405FF2C01D8B00002E0A6F1080077
:10262C00800029680F23834021EA030209FA00F392
:10263C0013432B607B6813F0805F6CD03E4B9A6920
:10264C0042F001029A619B6903F001030193019B23
:10265C00B008821C394B53F8221006F00305AD006C
:10266C000F23AB4021EA03022E4B984513D003F500
:10267C00806398450DD003F58063984507D003F52A
:10268C008063984501D1032306E0042304E0022370
:10269C0002E0012300E00023AB4013430230274A41
:1026AC0042F820307B6813F4803F05D002F580623D
:1026BC0013682343136004E0214A136823EA0403DC
:1026CC0013607B6813F4003F04D01D4A5368234306
:1026DC00536004E01A4A536823EA040353607B688E
:1026EC0013F4801F04D0164A93682343936004E0CC
:1026FC00134A936823EA040393607B6813F4001F66
:10270C0004D00F4AD3681C43D46004E00C4AD3684D
:10271C0023EA0404D46001360F2E7FF6E3AE03B037
:10272C00BDE8F08300080140F84A000800001110D1
:10273C000000211000003110001002400000014088
:10274C000004014070B5064615460C4621B90948EF
:10275C004FF4F271FEF77EFB012D04D9054840F2CF
:10276C00E511FEF777FB0DB1346170BD24043461C3
:10277C0070BD00BFF84A0008F0B583B0044603688A
:10278C0013F0130F03D15F487E21FEF763FB236820
:10279C0013F0010F7ED0636863B1B3F5807F09D06D
:1027AC00B3F5007F06D0B3F5407F03D055488421A4
:1027BC00FEF750FB544BDA6942F08052DA61DB6968
:1027CC0003F080530193019B504A136843F48073C8
:1027DC001360FFF727FE054605E0FFF723FE401BBD
:1027EC00642800F28880494B1B6813F4807FF4D076
:1027FC00454B1B6A13F4407345D0626802F4407277
:10280C009A4240D04048016A21F440764FF480331C
:10281C0093FAA3F2B2FA82F23D4D012745F82270E9
:10282C0093FAA3F3B3FA83F3002245F8232006624C
:10283C0011F0010F27D0FFF7F5FD054606E0FFF775
:10284C00F1FD401B41F28833984256D8022393FA8B
:10285C00A3F293FAA3F3B3FA83F343F040035B09B7
:10286C00022B02D1284B1A6A01E0274B5A6A022329
:10287C0093FAA3F3B3FA83F303F01F0322FA03F3DF
:10288C0013F0010FDBD020490B6A23F4407263680C
:10289C0013430B62236813F0020F15D0A36863B1C6
:1028AC00B3F5804F09D0B3F5004F06D0B3F5404FC8
:1028BC0003D01448BA21FEF7CDFA13494B6823F420
:1028CC004042A36813434B60236813F0100F16D0DB
:1028DC00E368B3F5800F05D023B10A484FF48B7130
:1028EC00FEF7B8FA08494B6823F48002E3681343F7
:1028FC004B60002004E0032002E0032000E00020F5
:10290C0003B0F0BD304B00080010024000700040D6
:10291C000004424210B50446C31E042B03D90A48D6
:10292C00BA21FEF797FA04F00700084AD36823F49B
:10293C00E0631B041B0C43EA002040F0BF6040F432
:10294C000030D06010BD00BF684B000800ED00E007
:10295C0070B504460E4615460F2A03D91A48D221E3
:10296C00FEF778FA0F2E03D91748D321FEF772FA27
:10297C00164BDB68C3F30223C3F10702042A28BFFA
:10298C000422191D062901D9D81E00E000200123BC
:10299C0003FA02F2013A324002FA00F183405A1E65
:1029AC002A400A43002C06DA04F00F041201D2B2BA
:1029BC00074B1A5570BD1201D2B204F1604404F5F4
:1029CC00614484F8002370BD684B000800ED00E002
:1029DC0014ED00E010B5041E03DA0648E621FEF7FC
:1029EC0039FA610904F01F040123A340024A42F89A
:1029FC00213010BD684B000800E100E00138B0F157
:102A0C00807F0AD2064B5860F021064A82F82310C8
:102A1C000020986007221A6070470120704700BFA1
:102A2C0010E000E000ED00E010B50446042805D0ED
:102A3C0020B109484FF4DF71FEF70CFA042C05D1D4
:102A4C00064A136843F00403136010BD034A13686D
:102A5C0023F00403136010BD684B000810E000E085
:102A6C00704700BF08B5FFF7FBFF08BD4368114A6C
:102A7C00934208D85800B1FBF0F0C0F30B03032BC2
:102A8C0016D804207047826832B903EB4300B1FBBF
:102A9C00F0F040F4004007E003EB830000EB800013
:102AAC00B1FBF0F040F44040C0F30B0303B901203C
:102ABC00704700BFA086010003685A6912F4806F4A
:102ACC000DD05A6922F480625A6104238363202357
:102ADC0080F83530002380F8343001207047002016
:102AEC00704700BF2DE9F04106460C4690461D4646
:102AFC00FFF798FC0746B8F1000F12D03DE0B5F196
:102B0C00FF3F0ED025B1FFF78DFCC01BA84208D9A2
:102B1C00202386F83530002386F834300320BDE8B6
:102B2C00F081C4F30743012B08D133685B6924EAB5
:102B3C0003039BB2003318BF012307E033689B6982
:102B4C0024EA03039BB2003318BF0123002BD6D118
:102B5C000020BDE8F081B5F1FF3F0ED025B1FFF7A5
:102B6C0061FCC01BA84208D9202386F8353000230D
:102B7C0086F834300320BDE8F081C4F30743012B01
:102B8C0008D133685B6924EA03039BB2B3FA83F37D
:102B9C005B0907E033689B6924EA03039BB2B3FA31
:102BAC0083F35B09002BD6D10020BDE8F08100BF78
:102BBC00F8B504460D461646FFF734FC074628E0E8
:102BCC0023685A6912F4806F12D01A6842F40072AA
:102BDC001A602268536923F4806353610423A3634E
:102BEC00202384F83530002384F834300120F8BDDC
:102BFC00B6F1FF3F0DD026B1FFF714FCC01BB0425D
:102C0C0007D9202384F83530002384F8343003208E
:102C1C00F8BDC5F30743012B08D123685B6925EA8E
:102C2C0003039BB2003318BF012307E023689B69A1
:102C3C0025EA03039BB2003318BF0123002BBFD13D
:102C4C000020F8BD70B504460E46154602681368A0
:102C5C0043F4807313604FF0011100222B46FFF7F1
:102C6C0041FF48BB2369B3F5804F04D1236806F0BC
:102C7C00FE061E6114E0226806F44073DB1143F07B
:102C8C00F0031361204610492A46FFF791FF20B14B
:102C9C00A36B042B12D1012313E02368F6B21E613F
:102CAC0020460A492A46FFF783FF034648B1A36B27
:102CBC00042B05D1012304E0032302E0032300E0ED
:102CCC000323184670BD00BF08000100020001007C
:102CDC0070B504460D46FFF7A5FB064618E02046E6
:102CEC00FFF7EAFED8B9B5F1FF3F11D025B1FFF7D8
:102CFC0099FB801BA8420BD9A36B43F02003A36361
:102D0C00202384F83530002384F83430032070BD40
:102D1C0023685B6913F0800FE1D0002070BD0120A7
:102D2C0070BD00BF70B504460D46FFF77BFB064631
:102D3C0018E02046FFF7C0FED8B9B5F1FF3F11D01F
:102D4C0025B1FFF76FFB801BA8420BD9A36B43F097
:102D5C002003A363202384F83530002384F8343017
:102D6C00032070BD23685B6913F0040FE1D00020D1
:102D7C0070BD012070BD00BF002800F0AB8038B5DD
:102D8C0004460368544A934208D002F58062934289
:102D9C0004D052484FF4A571FEF75CF86368013B10
:102DAC004F4A934204D94D4840F24B11FEF752F86A
:102DBC00A3683BB1B3F5804F04D048484FF4A671DB
:102DCC00FEF748F8E36823F47F7323F0030323B181
:102DDC00424840F24D11FEF73DF82369B3F5804FA0
:102DEC0007D0B3F5404F04D03C484FF4A771FEF721
:102DFC0031F86369012B04D9384840F24F11FEF7C2
:102E0C0029F8A36933F0FE0304D034484FF4A871B9
:102E1C00FEF720F8E36933B1402B04D02F4840F281
:102E2C005111FEF717F8236A33B1802B04D02B48CD
:102E3C004FF4A971FEF70EF894F8353013F0FF0F2C
:102E4C0005D1002384F834302046FDF70FFA2423F3
:102E5C0084F835302268136823F001031360FEF701
:102E6C0027FD01461F4BA3FB00239B0C22685360DC
:102E7C00206865681C4A954201D8013308E04FF47C
:102E8C00967202FB03F3194AA2FB03239B0901333D
:102E9C00036225682046FFF7E9FDE8612268E169D5
:102EAC00236A0B43136022682169E3680B43936028
:102EBC0022686169A3690B43D3602268136843F0ED
:102ECC00010313600020A063202384F8353084F8BC
:102EDC00360038BD0120704700540040A04B00085C
:102EEC007F1A060083DE1B43A0860100D34D6210BF
:102EFC00F0B583B004461D4690F83530DBB2202B7C
:102F0C007AD10F461646002A78D0002D78D0424947
:102F1C00012242F21073FFF7E5FD002872D194F8FC
:102F2C003430012B70D0012384F8343022681368BC
:102F3C0023F400631360212384F83530102384F8C4
:102F4C0036300023A36320463946089AFFF77AFEF1
:102F5C0060B1A36B042B04D1002384F8343001231B
:102F6C0057E0002384F83430032352E023685A6975
:102F7C0001929B690193019B20E020460899FFF781
:102F8C00A7FE48B1A36B042B40D12268136843F40D
:102F9C000073136001233CE02268731C31781161CB
:102FAC00013DADB22268516911F0040F05D025B175
:102FBC00B31C71781161013DADB21E46002DDCD100
:102FCC0020460899FFF7AEFE034648B1A36B042BCD
:102FDC001ED12268136843F400731360012318E0B8
:102FEC0021680A6842F400720A60202284F83520B5
:102FFC00002284F834200CE002230AE0012308E0CC
:10300C00012306E0022304E0022302E0032300E094
:10301C000323184603B0F0BD02001000704700BF38
:10302C00704700BF10B4046863604368102B04D170
:10303C0003689A600368D96003E0036899600368C9
:10304C00DA605DF8044B7047002800F0898010B5F9
:10305C0004460368434A934215D01432934212D06B
:10306C00143293420FD0143293420CD01432934248
:10307C0009D01432934206D01432934203D03A480A
:10308C00B521FDF7E7FE636843B1102B06D0B3F50D
:10309C00804F03D03448B621FDF7DCFEA368402BEB
:1030AC0004D01BB13048B721FDF7D4FEE368802B68
:1030BC0004D01BB12C48B821FDF7CCFE23694BB1D1
:1030CC00B3F5807F06D0B3F5007F03D02648B92135
:1030DC00FDF7C0FE63694BB1B3F5806F06D0B3F555
:1030EC00006F03D02048BA21FDF7B4FEA3692BB1C1
:1030FC00202B03D01C48BB21FDF7ACFEE36963B168
:10310C00B3F5805F09D0B3F5005F06D0B3F5405F2F
:10311C0003D01548BC21FDF79DFE94F821300BB966
:10312C0084F82030022384F821302068036823F4CB
:10313C007F5323F030036168A2681143E2681143A6
:10314C002269114362691143A2691143E2690A437E
:10315C001343036000206063012384F8213010BD09
:10316C000120704708000240D84B0008F8B590F8D1
:10317C002040012C34D01D4616460F460446012330
:10318C0080F82030022380F821306A1E4FF6FE733F
:10319C009A4204D9134840F26111FDF75BFE226894
:1031AC00136823F0010313602046394632462B4640
:1031BC00FFF738FF2268136843F00203136022689C
:1031CC00136843F0040313602268136843F0080388
:1031DC0013602268136843F0010313600020F8BDEC
:1031EC000220F8BDD84B000810B50446984B1A685D
:1031FC00036898498B421FD014318B421AD014317A
:10320C008B4214D014318B420ED014318B4208D027
:10321C0014318B4202D14FF400010EE04FF00061EB
:10322C000BE04FF4002108E04FF4004105E04FF4AF
:10323C00006102E0802100E008210A423CD01A68BB
:10324C0012F0080F38D01A6822F008021A602368AE
:10325C00804A93421FD0143293421AD014329342B4
:10326C0014D0143293420ED01432934208D014323C
:10327C00934202D14FF400020EE04FF000620BE0DB
:10328C004FF4002208E04FF4004205E04FF40062D6
:10329C0002E0802200E008226D4B5A60636B43F021
:1032AC0001036363042384F82130002384F8203065
:1032BC00236B0BB120469847654B1A682368654908
:1032CC008B421FD014318B421AD014318B4214D044
:1032DC0014318B420ED014318B4208D014318B42F6
:1032EC0002D14FF480010EE04FF080610BE04FF4FF
:1032FC00802108E04FF4804105E04FF4806102E04A
:10330C00402100E004210A4239D01A6812F0040F5F
:10331C0035D01A6812F0200F03D11A6822F004027B
:10332C001A6023684B4A93421FD0143293421AD02E
:10333C001432934214D0143293420ED0143293426E
:10334C0008D01432934202D14FF480020EE04FF0B9
:10335C0080620BE04FF4802208E04FF4804205E0DD
:10336C004FF4806202E0402200E00422384B5A60A5
:10337C00112384F82130E36A0BB120469847344B73
:10338C001A68236833498B421FD014318B421AD0F0
:10339C0014318B4214D014318B420ED014318B4229
:1033AC0008D014318B4202D14FF400110EE04FF0D3
:1033BC0000710BE04FF4003108E04FF4005105E0D0
:1033CC004FF4007102E0202100E002210A423ED0BD
:1033DC001A6812F0020F3AD01A6812F0200F03D1BB
:1033EC001A6822F002021A6023681A4A93421FD00C
:1033FC00143293421AD01432934214D014329342A2
:10340C000ED01432934208D01432934202D14FF4AE
:10341C0000120EE04FF000720BE04FF4003208E0A7
:10342C004FF4005205E04FF4007202E0202200E05D
:10343C000222074B5A60636B6363012384F82130CB
:10344C00002384F82030A36A0BB12046984710BDA6
:10345C00000002400800024008B5012804D00948C9
:10346C0040F26721FDF7F6FC0022074BDA61074BAF
:10347C001A6942F004021A611A6942F040021A6198
:10348C0008BD00BF104C0008E003002000200240E3
:10349C000022064BDA61064B1A6942F002021A61ED
:1034AC0058611A6942F040021A617047E00300202B
:1034BC0000200240574B1B7E012B00F0A98070B5F9
:1034CC000E4605460122534B1A7603682BB1022B8C
:1034DC0003D05148B921FDF7BDFC2B68022B14D148
:1034EC004CF25030FEF768FA002840F08980012039
:1034FC00FFF7B2FF4CF25030FEF75EFA0246474936
:10350C000B6923F004030B617DE0AB68B3F1006F32
:10351C0016D3434A1288802A03D1424A93420FD8C9
:10352C0012E0402A03D1404A934209D80CE0202AE9
:10353C0003D13E4A934203D806E03D4A934203D955
:10354C003548FA21FDF786FC354B1B88802B0AD1B8
:10355C00AB68EA6803EB8223013B324A93428CBF8F
:10356C000023012323E0402B0AD1AB68EA6803EB6C
:10357C008223013B2C4A93428CBF0023012316E08B
:10358C00202B0AD1AB68EA6803EB8223013B274A64
:10359C0093428CBF0023012309E0AB68EA6803EB7C
:1035AC008223013B224A93428CBF002301231BB987
:1035BC001948FB21FDF74EFC4CF25030FEF7FCF99C
:1035CC0000BB4FF0FF333360AC68012211E02046A2
:1035DC00FFF75EFF4CF25030FEF7EEF90F4A13691D
:1035EC0023F002031361024608B134600BE004F5CA
:1035FC008064E968AB6803EB8123A342E7D802E05F
:10360C00012200E001220021024B1976104670BD08
:10361C0002207047E0030020104C000800200240FC
:10362C00E0F7FF1FFFFF0108FFFF0008FF7F000806
:10363C00FF3F000838B504460D46012803D904485D
:10364C002B21FDF707FC034B53F824305D6038BD8C
:10365C00544C00084C4C000808B5054B53F820009E
:10366C00FFF78AFB08B1012008BD002008BD00BF90
:10367C004C4C000810B582B00C46134641000A228F
:10368C00009205482246FFF733FC10B14FF0FF3093
:10369C0000E0002002B010BD3800002008B5024840
:1036AC00FEF7D8FD08BD00BFB000002008B50248E9
:1036BC00FEF7D0FD08BD00BFB000002008B5FEF736
:1036CC005DF908B1022008BD002008BD30B583B0FB
:1036DC0004460D460F480123436000220260C3607C
:1036EC00846001A9FFF7E6FE08B104200FE0002377
:1036FC0006E034F8131013464FF6FF72914205D1D1
:10370C005A1CB2EB550FF4D3002000E0032003B099
:10371C0030BD00BF0404002008B5FEF743F908B122
:10372C00012008BD002008BDF8B505460C4616461C
:10373C00FFF7C4FFD8B920463146FFF7C7FFB8B929
:10374C0027460CE0012021462A880023FEF76CF95D
:10375C0078B92A8823889A420DD102340235631C29
:10376C00F2199342EED3FFF7D7FF30B9F8BDF8BD8D
:10377C00F8BD0620F8BD0520F8BDF8BD38B50446E7
:10378C000D46022803D904483821FDF763FB034B8F
:10379C0053F824305D6038BD884C00087C4C000820
:1037AC0008B5054B53F82000FEF708FB08B10120C3
:1037BC0008BD002008BD00BF7C4C000808B50346BE
:1037CC000A4605481946FEF775FB10B14FF0FF305D
:1037DC0008BD002008BD00BF2C01002008B582B236
:1037EC000448FEF7B7FB10B14FF0FF3008BD0020C6
:1037FC0008BD00BF6C010020014B1860704700BF72
:10380C0014040020014B5860704700BF14040020C2
:10381C00014B9860704700BF14040020014BD86026
:10382C00704700BF1404002010B50446032803D9C8
:10383C0005482321FDF70EFB044B53F824000449E3
:10384C00FEF704FE10BD00BFC44C0008B44C0008C9
:10385C001404002070B504460E461546032803D9FF
:10386C0005482821FDF7F6FA044B53F8240031469D
:10387C00EAB2FEF767FF70BDC44C0008B44C0008F8
:10388C000FB400B583B004A951F8040B019100F0FA
:10389C00AFF803B05DF804EB04B070470A4B19683D
:1038AC000A4B1B7813F0FF0F04D10B18064A126851
:1038BC009342F5D80844044B1B68984201D8012068
:1038CC0070470020704700BF3C080020AC0100206E
:1038DC0008B56420FFF7E2FF98B90A4B1B686BB17F
:1038EC00084A591C11600A21197007481168091AF5
:1038FC0089B2FFF763FF0022044B1A70024A014B96
:10390C001A6008BD2408002024040020AC0100200B
:10391C000FB430B583B006AC54F8045B6420FFF7E9
:10392C00BDFF01942846214600F062F8064B1B6847
:10393C00064A9B1AB3F5617F01DDFFF7C9FF03B09F
:10394C00BDE8304004B07047240800202404002057
:10395C0008B42DE9F04183B006468846174609ACF9
:10396C0054F8045B6420FFF799FF0A4841463A4635
:10397C003346FFF785FF01942846214600F038F8BE
:10398C000548FFF77DFFFFF7A3FF03B0BDE8F0414B
:10399C0001B07047EC4C0008784E00080122014B36
:1039AC001A707047AC01002010B504460A2802D1E9
:1039BC000D20FFF7F9FF074B1B6823B1591C054A73
:1039CC0011601C7010BD044B1B680BB1204698474E
:1039DC0010BD00BF240800202808002010B50446A4
:1039EC0002E00134FFF7E0FF20780028F9D110BD88
:1039FC002DE9F04F85B006468846741C30780028B7
:103A0C0000F0ED80252803D0FFF7CEFF2646F4E723
:103A1C00B31C7078302803D1F31CB078012706E072
:103A2C002D2803D1F31CB078022700E000271E4696
:103A3C00002406E004EB840464000444303C307839
:103A4C000136A0F13003DBB2092BF3D96C2801D07D
:103A5C004C2803D147F0040730780136002800F0D9
:103A6C00BE80602803D9A0F12003DBB200E003463E
:103A7C00A3F14202162A3ED8DFE802F04030373D6F
:103A8C003D3D3D3D3D3D3D3D3D433D3D3D0C3D378B
:103A9C003D3D3A00D8F800A008F10408002500E0EC
:103AAC0001351AF80530002BFAD103E02020FFF77E
:103ABC007BFF4D4617F0020F04D105F10109A54219
:103ACC00F4D34D465046FFF789FF03E02020FFF763
:103ADC006BFF3D466F1CA542F8D38EE798F80000AB
:103AEC0008F10408FFF760FF87E74FF00A0C0AE0C3
:103AFC004FF0100C07E0FFF757FF7EE74FF0020C7A
:103B0C0001E04FF0080C17F0040F04D0D8F8009027
:103B1C0008F104080AE0442B04D1D8F8009008F10D
:103B2C00040803E0D8F8009008F10408442B06D1EF
:103B3C00B9F1000F03DAC9F1000947F008070021B9
:103B4C0000E02946B9FBFCFE0CFB1E93DBB2F146F0
:103B5C00092B06D9782801D1272200E007221A4424
:103B6C00D3B24D1C04AA1144303301F8103CBEF101
:103B7C00000F01D00F2DE4D917F0080F06D02B46FB
:103B8C0004AA134401352D2203F8102C17F0010F51
:103B9C0002D04FF0300B01E04FF0200BA94603E0B0
:103BAC005846FFF701FFD14617F0020F04D109F177
:103BBC00010AA145F4D3D146013D04AB2B4413F8C3
:103BCC00100CFFF7F1FE002DF6D103E02020FFF7DB
:103BDC00EBFEA94609F10105A145F7D30DE705B0A8
:103BEC00BDE8F08F38B505460C4602204FF416514F
:103BFC00FFF7C4FD0220FFF7D3FDC8B90D4B1B68BE
:103C0C001C4408202946FFF7E9FD04E00A48FFF7A9
:103C1C007FFEFFF75DFE074B1B689C4203D9074BE9
:103C2C001B68002BF2D1054B186808B1012038BD78
:103C3C0038BD00BF3C080020FC4C0008B00100203F
:103C4C0038B50546194B1B68002B26DD174A13683F
:103C5C00013B1360002209E0AB5C59091448445C39
:103C6C0003F01F032344DBB243540132072AF3DD74
:103C7C000E4B1B6833B113E00D49CA5CD208CA5411
:103C8C00013300E00023072BF6DD09E0AB5C58099B
:103C9C0003F01F030B54013200E00022072AF5DD6C
:103CAC0008202946FFF79AFD38BD00BFB00100205F
:103CBC002C0800204379094A526A9B1A0C2B0ADC07
:103CCC0043799B1A13F10C0F02DB4079801A704771
:103CDC006FF00C0070470D20704700BF4C020020A5
:103CEC000379094A926A9B1A0C2B0ADC03799B1AFA
:103CFC0013F10C0F02DB0079801A70476FF00C0087
:103D0C0070470D20704700BF4C020020C379094A50
:103D1C00D26A9B1A0C2B0ADCC3799B1A13F10C0F79
:103D2C0002DBC079801A70476FF00C0070470D20D1
:103D3C00704700BF4C0200208379094A126B9B1A12
:103D4C000C2B0ADC83799B1A13F10C0F02DB8079A4
:103D5C00801A70476FF00C0070470D20704700BF41
:103D6C004C020020F0B583B00446437813F0010FE9
:103D7C000CBF0125002515B17048FFF7C9FD70482F
:103D8C00FFF7C6FD15B16F48FFF7C2FD637813F05E
:103D9C00040F0CBF0125002515B16848FFF7B8FDCD
:103DAC006948FFF7B5FD15B16648FFF7B1FD6378BB
:103DBC0013F0020F0CBF0125002515B15F48FFF76A
:103DCC00A7FD6248FFF7A4FD15B15E48FFF7A0FD03
:103DDC00637813F0080F0CBF0125002515B1574867
:103DEC00FFF796FD5A48FFF793FD15B15548FFF7BD
:103DFC008FFDA37813F0080F0CBF0125002515B11A
:103E0C004E48FFF785FD5348FFF782FD15B14D482D
:103E1C00FFF77EFDA37813F0040F0CBF01250025DE
:103E2C0015B14648FFF774FD4B48FFF771FD15B10E
:103E3C004448FFF76DFDA37813F0020F0CBF01256A
:103E4C00002515B13D48FFF763FD4448FFF760FDC1
:103E5C0015B13C48FFF75CFDA37813F0010F0CBFC4
:103E6C000125002515B13548FFF752FD3C48FFF7F9
:103E7C004FFD15B13348FFF74BFDE37813F0080FF6
:103E8C000CBF0125002515B12C48FFF741FD354825
:103E9C00FFF73EFD15B12B48FFF73AFDE37813F021
:103EAC00040F0CBF0125002515B12448FFF730FD88
:103EBC002D48FFF72DFD15B12248FFF729FDE378BA
:103ECC0013F0020F0CBF0125002515B11B48FFF79D
:103EDC001FFD2648FFF71CFD15B11A48FFF718FD0A
:103EEC00E37813F0010F0CBF0125002515B1134821
:103EFC00FFF70EFD1E48FFF70BFD15B11148FFF73C
:103F0C0007FD1C48FFF704FD2046FFF7D3FE0746CC
:103F1C002046FFF7E5FE06462046FFF7F7FE05466E
:103F2C002046FFF709FF00901348394632462B46CE
:103F3C00FFF7EEFC002003B0F0BD00BF004D000801
:103F4C00104D0008184D0008284D0008304D000891
:103F5C00384D0008404D0008484D00084C4D0008F5
:103F6C00544D00085C4D0008644D00086C4D000871
:103F7C00744D0008784E00087C4D000830B585B0B3
:103F8C00054643880F4CA4FB0324E408B4F57A7F60
:103F9C0008D30278009201930B480C4920220C4B59
:103FAC00FFF7D6FC2A79230A43EA82038DF80C30FA
:103FBC008DF80D40287803A9022200F053F805B0C3
:103FCC0030BD00BFCDCCCCCC304A0008D44D00085D
:103FDC00944D000810B504460F482178FFF798FC63
:103FEC002379032B12D8DFE803F002060A0E0B48E4
:103FFC00FFF78EFC0AE00A48FFF78AFC06E0094846
:10400C00FFF786FC02E00848FFF782FC074861884E
:10401C00FFF77EFC10BD00BFAC4D0008B84D00088A
:10402C00BC4D0008C04D0008C44D0008C84D000828
:10403C0000B583B043788DF80430DB438DF8053040
:10404C00007801A9022200F00DF803B05DF804FB22
:10405C0008B50346024819785A78FFF759FC08BD91
:10406C00E04D000808B5FFF705FB08BD10B50024AE
:10407C0009E004EB44035B000B481844FFF77EFF98
:10408C0000B110BD0134012CF3DD002407E007481A
:10409C0000EB4400FFF7CCFF00B110BD0134002C45
:1040AC00F5DD002010BD00BF08000020040000203A
:1040BC0010B5002407E004EB44035B0008481844E7
:1040CC00FFF788FF0134012CF5DD002405E00548DD
:1040DC0000EB4400FFF7BCFF0134002CF7DD10BDF2
:1040EC00080000200400002008B500200549FFF757
:1040FC00A1FA0020FFF7B0FA08B1012008BD00209A
:10410C0008BD00BF400D03000020704700B595B0FE
:10411C0009230A934FF480330B9300220C92012253
:10412C0010920222119212934FF4E01313930AA8E7
:10413C00FCF792FE38B122482249A422224BFFF709
:10414C0007FC012038E00F23059302210691002380
:10415C0007934FF480620892099305A8FDF750FA73
:10416C0038B117481749AF22184BFFF7F1FB012064
:10417C0022E0022301934FF40043039301A8FEF7BE
:10418C00FBFA38B10E480F49B622114BFFF7E0FB92
:10419C00012011E0FDF786FB4FF47A73B0FBF3F0CE
:1041AC00FEF72CFC0420FEF73FFC4FF0FF30002103
:1041BC000A46FEF7CDFB002015B05DF804FB00BFEE
:1041CC00304A0008F84D0008084E0008184E000848
:1041DC002C4E000800B585B0284B9A6942F00402B9
:1041EC009A619A6902F004020092009A9A6942F06C
:1041FC0008029A619A6902F008020192019A9A697E
:10420C0042F010029A619A6902F010020292029A2C
:10421C009A6942F020029A619B6903F02003039390
:10422C00039B4FF40050FFF7E7FA0020FFF7EAFA80
:10423C000020FFF7EDFA0220FFF7F6FA2020FFF737
:10424C00DBFA0120FFF7DEFA0220FFF7E7FA002085
:10425C00FFF7EAFA1020FFF7CFFA0948FFF7D2FA76
:10426C000020FFF7D5FA0220FFF7DEFA002020210C
:10427C000246FFF7EFFA05B05DF804FB00100240B0
:10428C000000111010B5FEF7B3F858BBFFF73EFF56
:10429C0050BB0120FFF784FAFFF71AFBFFF724FF4E
:1042AC00044610BBFFF796FF114812498A22124BA5
:1042BC00FFF74EFB114842F21071FFF793FC0446D6
:1042CC0038B10F480B498C220E4BFFF741FB0124F0
:1042DC000BE0074807498F220B4BFFF739FBFCF724
:1042EC0047FD02E0012400E00124204610BD00BF80
:1042FC00DC490008F04D0008484E0008B4010020CD
:10430C00304A0008644E00087C4E000808B5FCF7E3
:10431C0035FD08BD08B5FFF7A9FE08BD00B583B093
:10432C00FFF7B0FF50B10090334834493222344B80
:10433C00FFF70EFB6420FFF7B1FA59E00A20FFF7F4
:10434C00E3FE50B100902C482C4938222D4BFFF73E
:10435C00FFFA6420FFF7A2FA4AE000222A4B1A6007
:10436C002A4826493F222A4BFFF7F2FA2948FFF741
:10437C00CFFAFFF7CBFF244B1A68274BA3FB021392
:10438C001B09C3EB03135B00D31A092B0ED823486C
:10439C00FFF7E8FCFFF78CFE214B19782148FFF75B
:1043AC00B7FAFFF795FA2048FFF7B2FA164B1A68DE
:1043BC001E4BA3FB0213DB0803EB83035B00D31A36
:1043CC00042BF3D1FFF7A6FF30B100900A480B493C
:1043DC005422174BFFF7BCFA0B4B1A68134BA3FB79
:1043EC000213DB0803EB83035B009A42F4D1C0E7B2
:1043FC00012003B05DF804FB304A0008F84E0008B9
:10440C00904E0008A44E00083C080020DC4900082F
:10441C00C04E0008CC4E000889888888B401002062
:10442C00BC010020D84E0008D04E0008CDCCCCCC1E
:10443C00DC4E000808B502480249FFF701FC08BD34
:10444C0034080020B401002008B5FFF7A7FA08BD16
:10445C00002103E00B4B5B58435004310A480B4BD3
:10446C0042189A42F6D30A4A02E0002342F8043B6F
:10447C00084B9A42F9D3FBF795FE00F00FF8FFF7C3
:10448C004DFF7047084F000800000020C0010020BD
:10449C00C001002040080020FEE700000E4B70B564
:1044AC001E460E4C0025E41AA410A54204D056F862
:1044BC00253098470135F8E700F022F8084B094CF5
:1044CC001E46E41AA4100025A54204D056F8253047
:1044DC0098470135F8E770BD004F0008004F000801
:1044EC00004F0008044F000810B5431E0A449142C7
:1044FC0004D011F8014B03F8014FF8E710BD000090
:10450C00F8B500BFF8BC08BC9E467047F8B500BFB4
:08451C00F8BC08BC9E46704784
:1045240002030405060708090A0B0C0D0E0F1010F0
:10453400010200000000000000000000010203046A
:1045440006070809000000000102030461645F6BB0
:1045540065795461736B000052435F61646A7573DB
:10456400745F5A65726F00000000000014000000C0
:10457400ECFFFFFF6C6566742061646A75737400F8
:104584000000000025000000000000000000000002
:1045940014000000ECFFFFFF726967687420616417
:1045A4006A7573740000000025000000000000001C
:1045B40032000000C800000000000000737465654C
:1045C40072696E672074696D650000002A31306D70
:1045D400730000000A000000E7030000010000006F
:1045E40072632074696D656F7574000000000000CB
:1045F400730000000000000004000000060000003A
:1046040002000000726320636E7472207468657225
:10461400657300002F313600000000000400000024
:104624000600000002000000726320636E747220B2
:1046340074686572657300002F3136000000000055
:104644000400000006000000020000007263206302
:104654006E74722074686572657300002F313600C1
:10466400000000000400000006000000020000003A
:10467400726320636E7472207468657265730000DF
:104684002F31360000000000040000000600000086
:1046940002000000726320636E7472207468657295
:1046A400657300002F313600000000005B25326482
:1046B4005D203C252D3135733E205B253364202D50
:1046C400202533645D5B2533645D5B2535735D00B4
:1046D4001B5B25643B2564480000000020205B4EE2
:1046E4004F5D203C252D3135733E205B4D494E20D6
:1046F4002D204D41585D5B56616C5D5B2535735DC6
:104704000A0000004E616D6500000000556E69747A
:10471400000000002D2D2D2D2D2D2D2D2D2D2D2D79
:104724002D2D2D2D2D2D2D2D2D2D2D2D2D2D2D2DB5
:104734002D2D2D2D2D2D2D2D2D2D2D2D2D2D2D2DA5
:104744002D2D2D2D2D0A00003E20000020200000DC
:104754002B2D2D2D2D2D1B5B313B33336D48454CBB
:10476400501B5B303B33396D2D2D2D2D2D2D2D2DD3
:104774002D2D2D2D2D2D2D2B2D2D2D2D2D2D2D2D67
:104784002D2D2D2D2D2D2D2D2D2D2D2D2D2D2D2D55
:104794002B0A00007C2025732E2E2E252D313873F4
:1047A4007C2025732E2E2E252D3138737C0A000093
:1047B400E286912000000000435552534F52205589
:1047C40050000000E286932000000000435552533D
:1047D4004F5220444F574E004C31000056414C5527
:1047E40045204445434031005231000056414C5568
:1047F4004520494E434031004C32000056414C554F
:10480400452044454340313000000000523200004E
:1048140056414C554520494E43403130000000007C
:10482400C39720004F4B0000E2978B20000000004C
:1048340073772048454C502F5243206461746100C3
:10484400E296B320000000004C4F4144204445460A
:1048540000000000E296A1200000000053415645EC
:10486400203220464C415348000000002B2D2D2DB2
:104874002D2D2D2D2D2D2D2D2D2D2D2D2D2D2D2D64
:104884002D2D2D2D2D2B2D2D2D2D2D2D2D2D2D2D56
:104894002D2D2D2D2D2D2D2D2D2D2D2D2D2D2B0A69
:1048A400000000002D2D2D2D2D2D1B5B313B3333AE
:1048B4006D52432056414C1B5B303B33396D2D2DDB
:1048C4002D2D2D2D2D2D2D2D2D2D2D2D2D2D2D2D14
:1048D4002D2D2D2D2D2D2D2D2D2D2D2D2D2D2D2D04
:1048E4002D2D2D2D0A0000001B5B324A0000000014
:1048F40061646A757374207A65726F0A000000003F
:10490400E2978B202E2E2E2061646A7573740AC37D
:1049140097202E2E2E2063616E63656C0A000000C2
:104924002825642C2564292C2825642C2564290A2F
:10493400000000002B2D2D2D2D2D2D2D2D2D2D2D59
:104944002D2D2D2D2B2020202B2D2D2D2D2D2D2DBE
:104954002D2D2D2D2D2D2D2D2B20200A0000000076
:104964007C202020202020207C202020202020208B
:104974007C2020207C202020202020207C2020201F
:10498400202020207C20200A000000007C2D2D2DDA
:104994002D2D2D2D2B2D2D2D2D2D2D2D7C2020201D
:1049A4007C2D2D2D2D2D2D2D2B2D2D2D2D2D2D2DE6
:1049B4007C20200A000000001B5B34316D20201B8A
:1049C4005B34396D000000001B5B34326D20201B0A
:1049D4005B34396D000000006D73670061646A75B3
:1049E400737465640000000063616E63656C6564E4
:1049F400000000003E0000002A0000006C6F6164AB
:104A04002064656661756C742076616C7565000060
:104A140073617665207375636365737300000000CA
:104A2400706C7A20726573657400000065727200A0
:104A340073617665206661696C75726500000000BB
:104A440052435F41444A555354000000447269760E
:104A54006572732F53544D3332463178785F484131
:104A64004C5F4472697665722F5372632F73746D51
:104A74003332663178785F68616C5F7263632E638A
:104A840000000000447269766572732F53544D33ED
:104A940032463178785F48414C5F4472697665727A
:104AA4002F5372632F73746D3332663178785F6875
:104AB400616C5F666C6173682E6300004472697692
:104AC4006572732F53544D3332463178785F4841C1
:104AD4004C5F4472697665722F5372632F73746DE1
:104AE4003332663178785F68616C5F756172742EF9
:104AF40063000000447269766572732F53544D331A
:104B040032463178785F48414C5F44726976657209
:104B14002F5372632F73746D3332663178785F6804
:104B2400616C5F6770696F2E630000004472697680
:104B34006572732F53544D3332463178785F484150
:104B44004C5F4472697665722F5372632F73746D70
:104B54003332663178785F68616C5F7263635F6576
:104B6400782E6300447269766572732F53544D3303
:104B740032463178785F48414C5F44726976657299
:104B84002F5372632F73746D3332663178785F6894
:104B9400616C5F636F727465782E6300447269762A
:104BA4006572732F53544D3332463178785F4841E0
:104BB4004C5F4472697665722F5372632F73746D00
:104BC4003332663178785F68616C5F6932632E6373
:104BD40000000000447269766572732F53544D339C
:104BE40032463178785F48414C5F44726976657229
:104BF4002F5372632F73746D3332663178785F6824
:104C0400616C5F646D612E6300000000447269761C
:104C14006572732F53544D3332463178785F48416F
:104C24004C5F4472697665722F5372632F73746D8F
:104C34003332663178785F68616C5F666C61736883
:104C44005F65782E630000003800002074000020A7
:104C5400447269766572732F6D6964646C654C6126
:104C6400796572732F4932432F5372632F4D575F07
:104C74004932432E63000000EC0000202C01002088
:104C84006C010020447269766572732F6D696464E7
:104C94006C654C61796572732F554152542F537270
:104CA400632F4D575F55534152542E63000000004B
:104CB40000080140000C01400010014000140140B4
:104CC400447269766572732F6D6964646C654C61B6
:104CD400796572732F4750494F2F5372632F4D5785
:104CE4005F4750494F2E6300252D31307320252D09
:104CF400336420252D387300243000001B5B313BC6
:104D040033336D1B5B34306D00000000E28691206C
:104D1400200000001B5B303B33396D1B5B34396D65
:104D240000000000E286932020000000E28692202A
:104D340020000000E286902020000000E296A120DE
:104D44002000000058202000E2978B202000000063
:104D5400E296B320200000004C3120200000000027
:104D64004C322020000000005231202000000000BE
:104D74005232202000000000282533642C2533649F
:104D8400292C282533642C253364290A00000000CB
:104D94005B25785D64757479206F76657220666C26
:104DA4006F772825642900004D442825303278295E
:104DB4003A5B00004672000046770000427700002C
:104DC400427200005D2C5B2534645D0A0000000023
:104DD40044445F73656E64324D44000041422825AB
:104DE400303278293A5B253038625D0053595F6967
:104DF4006E69740053595F636C6F636B496E6974B9
:104E0400000000006F7363436F6E666967466169F3
:104E14006C640000636C6F636B436F6E6669674616
:104E240061696C640000000048414C5F5243434593
:104E3400785F506572697068434C4B436F6E666966
:104E4400670000007761697420666F722052432006
:104E5400636F6E6E656374696F6E2E2E2E00000094
:104E6400524320696E697469616C697A6520666170
:104E7400696C64210A000000524320636F6E6E6502
:104E8400637465642073756365737300696E697414
:104E940069616C697A65204661696C642564000007
:104EA400493243436F6E6E656374696F6E54657304
:104EB40074204661696C6425640000007374617237
:104EC4007421210A000000001B5B324A1B5B313B4A
:104ED40031480000242564004465766963652044F4
:104EE4007269766572205461736B73204661696CD4
:0C4EF400642564006D61696E0000000020
:044F0000790100082B
:044F0400510100084F
:104F080000A24A0411000000100000000000100078
:104F180000000000B802002094020020DC020020FB
:104F28000003002024030020480300206C03002015
:104F380090030020B403002000540040A086010024
:104F48000000000000000000004000000000000019
:104F58000000000000000000000000000000000049
:104F68000000000000000000000000000000000039
:104F78000000000000580040A0860100000000006A
:104F880000000000004000000000000000000000D9
:104F98000000000000000000000000000000000009
:104FA80000000000000000000000000000000000F9
:104FB800002C01400000000000000000000000007C
:104FC80000000000000000000000000000000000D9
:104FD80000000000000000000000000000000000C9
:104FE8000000000000000000000000000038014040
:104FF80000C20100000000000000000000000000E6
:105008000C0000000000000000000000000000008C
:105018000000000000000000000000000000000088
:1050280000000000000000000000000000440040F4
:1050380000C20100000000000000000000000000A5
:105048000C0000000000000000000000000000004C
:105058000000000000000000000000000000000048
:1050680000000000000000000000000000480040B0
:105078008025000000000000000000000000000083
:105088000C0000000000000000000000000000000C
:105098000000000000000000000000000000000008
:1050A80000000000000000000000000001000000F7
:1050B8000900000000FFFFFFFFFFFFFF01000000E5
:040000050800445D4E
:00000001FF
