:020000040800F2
:1000000000500020194B0008B9110008BD1100086C
:10001000C1110008C5110008C91100080000000046
:10002000000000000000000000000000CD110008EA
:10003000D111000800000000D5110008D9110008F6
:10004000614B0008614B0008614B0008614B0008E0
:10005000614B0008614B0008614B0008614B0008D0
:10006000614B0008614B0008614B0008614B0008C0
:10007000614B000801120008614B0008614B000849
:10008000614B0008F1110008614B0008614B00084A
:10009000614B0008614B0008614B0008614B000890
:1000A000614B0008853D0008614B0008614B00086A
:1000B000953D0008614B0008614B0008614B00084A
:1000C000614B0008614B0008614B0008614B000860
:1000D000614B0008614B0008211200081112000852
:1000E000614B0008614B0008614B000800000000F4
:1000F0000000000000000000000000000000000000
:0C01000000000000000000005FF808F1A3
:10010C0010B5054C237833B9044B13B10448AFF345
:10011C0000800123237010BDF001002000000000BE
:10012C00C84B0008084B10B51BB108480849AFF381
:10013C0000800848036803B910BD074B002BFBD0A7
:10014C00BDE81040184700BF00000000C84B000875
:10015C00F4010020F001002000000000094BDB78C6
:10016C0013F0040F03D10122074B1A7007E0054B63
:10017C00DB7813F0010F02D10022034B1A70002020
:10018C00704700BFE40100200C0200200F4B9B784D
:10019C0013F0010F15D10E4B1B68ABB901220C4BA0
:1001AC001A600C4B5B7803F00F020F2A04D043F05B
:1001BC001F03084A537007E003F0E003054A53702D
:1001CC0002E00022024B1A6000207047E40100207C
:1001DC001002002024000020084B1B7813B1012BC7
:1001EC0005D009E00122064B1A700020704703224B
:1001FC00034B1A7000207047012070470C0200203E
:10020C00EC01002070B5564B5B7813F0010F1DD13B
:10021C00544E554D554C304629462246012301F08B
:10022C0027F83046A91D2246002301F021F830465C
:10023C0005F10C012246012301F01AF8304605F1B4
:10024C0012012246012301F013F887E0444B5B783E
:10025C0013F0040F20D1434D434C2846214642F263
:10026C000F72012301F004F82846A11D42F20F720F
:10027C00002300F0FDFF284604F10C0142F20F723E
:10028C00012300F0F5FF284604F1120142F20F722F
:10029C00012300F0EDFF61E0314B5B7813F0080FA8
:1002AC001DD1304D304C2846214642F20F720123AD
:1002BC0000F0DEFF2846A11D2C4A002300F0D8FFD9
:1002CC00284604F10C010022012300F0D1FF28463E
:1002DC0004F112010022012300F0CAFF3EE0204B82
:1002EC005B7813F0020F1DD11E4D1F4C2846214682
:1002FC001E4A012300F0BCFF2846A11D42F20F72DA
:10030C00002300F0B5FF284604F10C010022012364
:10031C0000F0AEFF284604F112010022012300F088
:10032C00A7FF1BE00F4D104C28462146002201234D
:10033C0000F09EFF2846A11D0022134600F098FFF6
:10034C00284604F10C010022012300F091FF2846FD
:10035C0004F112010022012300F08AFF002070BD7D
:10036C00E4010020FC4B000828000020F1D8FFFF1E
:10037C0038B500242EE0032C30D8DFE804F0020856
:10038C000E14174804F07EF80021012310E01448E5
:10039C0004F0A4F8012100230AE0114804F072F8DB
:1003AC000221012304E00E4804F06CF80321012320
:1003BC00021D082A04D900EB400200EB022200E0E7
:1003CC00002201EB410149000648074D294400F089
:1003DC004FFF0134032CCEDD002038BD012038BD89
:1003EC00E4010020F44B000828000020F8B5042498
:1003FC0042E0052C09D0062C0DD0042C40D121480C
:10040C0004F02AF8042501270AE01E4804F03AF803
:10041C000525012704E01B4804F060F80625002799
:10042C00031D082B04D900EB400600EB062600E068
:10043C000026062D15D101204FF4004103F032FCAB
:10044C0008B9002E06DB0220012103F02BFC40B979
:10045C00002E06DD0C4B032283F828200022DA84C0
:10046C0009E005EB45056D0008480749294432466B
:10047C003B4600F0FDFE0134062CBADD0020F8BD31
:10048C000120F8BDE401002028000020F44B0008F6
:10049C0008B53C4BDB7813F0080F06D13A483B49C2
:1004AC003B4A012300F0E4FE12E0364BDB7813F0FC
:1004BC00020F07D13448354942F20F72012300F084
:1004CC00D7FE05E0304831490022012300F0D0FE70
:1004DC002C4B5B7813F0010F06D12B482D492C4A7D
:1004EC00012300F0C5FE12E0264B5B7813F0040FDD
:1004FC0007D12548274942F20F72012300F0B8FEBC
:10050C0005E0214823490022012300F0B1FE1D4BD8
:10051C005B7813F0080F13D10220012103F0C2FB0A
:10052C0030B91D4B032283F828200022DA8426E000
:10053C0015481A4942F20F72002300F099FE1EE092
:10054C00104B5B7813F0020F13D101204FF40041D4
:10055C0003F0A8FB30B9104B032283F828200022AB
:10056C00DA840CE008480D49094A002300F080FEAB
:10057C0005E0054809490022134600F079FE0020E9
:10058C0008BD00BFE4010020FC4B00084000002027
:10059C00F1D8FFFF46000020280000204C0000206E
:1005AC0008B500F071FC002008BD00BF08B52A4B4F
:1005BC00DB7813F0020F28D1274BDB7813F0010FF7
:1005CC0023D1254BDB7813F0080F1ED1224BDB789F
:1005DC0013F0040F03D018E00A2004F06DFA1E4B40
:1005EC00DB7813F0020FF7D01B4BDB7813F0010F05
:1005FC00F2D0194BDB7813F0080FEDD0164BDB78EB
:10060C0013F0040FE8D000F045FCFFF7A7FDC8B9C4
:10061C00124B1B7813B1012B07D014E0FFF7F2FD3E
:10062C0098B9FFF7E3FE30B110E0FFF7A1FE70B907
:10063C00FFF72EFF60B9FFF7A9FD50B9FFF7CCFD0E
:10064C0040B908BD08BD012008BD08BD08BD08BDE6
:10065C0008BD08BD08BD00BFE40100200C0200204D
:10066C00FEE700BF08B5034803494FF4A27204F03B
:10067C0099FA08BD5C020020204C0008002209E019
:10068C00930003F1006303F5FE331968094B43F83B
:10069C00221001320C2AF3DD002307E0064A52F83F
:1006AC002320044951F8231011600133082BF5DD88
:1006BC00704700BF140200200000002010B584B069
:1006CC0004460A461C3193685068009010680190EB
:1006DC000291034821460C3203F044FC04B010BDD7
:1006EC00644D000830B583B00546374801210A46F1
:1006FC0003F038FC35483649364A03F033FC3648AB
:10070C0003F030FC002414E0AC4203D1334803F076
:10071C0029FC02E0324803F025FC082C08DC2046BA
:10072C00304B53F82410FFF7C9FF2F4803F01AFC85
:10073C000134082CE8DD03F0F5FB23480D210122E0
:10074C0003F010FC294B1B7813B1012B32D039E08C
:10075C00274803F007FC274C274B009320462749DA
:10076C00274A284B03F0FEFB274B009320462749D2
:10077C00274A284B03F0F6FB274B009320462749CA
:10078C00274A284B03F0EEFB274B009320462749C2
:10079C00274A284B03F0E6FB274B009320462749BA
:1007AC00274A284B03F0DEFB274803F0DBFB03F062
:1007BC00B9FB07E0254803F0D5FB254803F0A4FE60
:1007CC0003F0B0FB03B030BD884D0008944D000819
:1007DC00BC4D0008C44D0008CC4D0008004E00086C
:1007EC00044E0008000000206C550008A4030020F3
:1007FC00084E00084C4E0008844E0008684E000855
:10080C00704E00087C4E0008A44E0008904E000864
:10081C00944E0008A04E0008C84E0008B04E0008C8
:10082C00B44E0008C44E0008E84E0008D84E00082C
:10083C00DC4E0008E04E0008144F0008F84E00088B
:10084C00004F00080C4F0008244F00085C4F0008B4
:10085C00E401002008B504480449482203F010FBC9
:10086C0000B1012008BD00BF1402002000FC0108EB
:10087C0008B5002307E0064A52F823201168054A00
:10088C0042F823100133082BF5DDFFF7E3FF08BD19
:10089C00000000201402002008B504F00DF908BD7A
:1008AC0008B50A2004F008F908BD00BF2DE9F0478F
:1008BC0082B06D4803F056FB6C480B21012203F00B
:1008CC0051FB6B4803F04EFB6A4803F04BFB03F003
:1008DC0029FB664D284601210A4603F043FB664C72
:1008EC0061792279E379A0790090644803F03AFBAE
:1008FC006779FFB294F804805FFA88F8E679F6B26B
:10090C0094F806905FFA89F928460221012203F037
:10091C0029FBDFF88CA1504603F024FB584C2046F1
:10092C0003F020FB204603F01DFB204603F01AFBCE
:10093C00544803F017FB204603F014FB204603F049
:10094C0011FB204603F00EFB504603F00BFB4E4C04
:10095C00A16A626A520028460A39173A03F002FB70
:10096C00DFF840A1504603F0FDFA216BE26A520019
:10097C0028460A39033A03F0F5FA504603F0F2FA26
:10098C00A7F10D03062B0FD8B8F1130F0CDCB8F13F
:10099C000C0F09DD7A002846A8F10A01173A03F07A
:1009AC00E1FA3A4803F0DEFAA6F10D03062B25D83E
:1009BC00B9F1130F22DCB9F10C0F1FDD72002B48BB
:1009CC00A9F10A01033A03F0CDFA304803F0CAFA50
:1009DC0003F0A8FAFFF764FFFFF762FFFFF760FF71
:1009EC00FFF75EFFFFF75CFFFFF75AFFFFF758FFBB
:1009FC00FFF756FFFFF754FFFFF752FFFFF750FFCB
:100A0C001D4B9B7813F0020F15D11B4A51791E4BCD
:100A1C00596211799962D179D96292791A631C4819
:100A2C001C494FF4CB721C4B03F0BCFA4FF47A7098
:100A3C00FFF732FF13E0104B9B7813F0040F7FF499
:100A4C0048AF1348134940F29B12144B03F0AAFA17
:100A5C004FF47A70FFF720FF034803F083FA00206D
:100A6C0002B0BDE8F08700BFA04F0008884D000819
:100A7C00A84F0008B84F0008E4010020D84F000828
:100A8C001850000844500008140200208050000840
:100A9C0090500008104C000894500008A05000081A
:100AAC00EC4F00087050000808B5FFF7FFFE034636
:100ABC0000B10123184608BD38B58C4B5A7812F09A
:100ACC00010F0CBF012500255B7813F0040F0CBF40
:100ADC000124002405B91CB3854B196885480331E2
:100AEC00012203F03FFA844803F03CFA35B1804A06
:100AFC001368013B23EAE373136007E034B17C4ACB
:100B0C0013680133082BA8BF08231360784B1968AE
:100B1C0078480331012203F025FA784803F022FAD1
:100B2C00724BDA7812F0080F0CBF01210021DA7831
:100B3C0012F0040F0CBF01220022D87810F0020F23
:100B4C000CBF01200020DB7813F0010F0CBF012338
:100B5C00002319B912B908B9002B4ED060B1644BFF
:100B6C001A68674B53F822205168136801338B4283
:100B7C00A8BF0B46136028E063B15D4B1A68604B4D
:100B8C0053F82220516813680A338B42A8BF0B46D6
:100B9C0013601AE061B1564B1A68594B53F8222076
:100BAC0091681368013B8B42B8BF0B4613600CE095
:100BBC005AB14F4B1A68524B53F822209168136864
:100BCC000A3B8B42B8BF0B4613604A4D484C216818
:100BDC0028460331032203F0C5F923681846484A16
:100BEC0052F82310FFF76AFD2168284603310222D0
:100BFC0003F0B8F9434803F0B5F93E48142101223B
:100C0C0003F0B0F9394B9B7813F0010F0CD13E482F
:100C1C003E494FF48E723E4B03F0C4F9FFF722FDB0
:100C2C00334B1868FFF75EFD304B9B7813F0080FC1
:100C3C0023D1FFF71DFE80B9334D344C2846214695
:100C4C004FF49272334B03F0ADF92846214640F233
:100C5C002512314B03F0A6F9FEE72C4C2F48214608
:100C6C004FF495722E4B03F09DF92748214640F224
:100C7C002B12294B03F096F9FEE71C4B5B7813F013
:100C8C00080F12D1204821494FF49972254B03F0DB
:100C9C0089F94FF47A70FFF7FFFDFFF705FF144B4E
:100CAC001868FFF71FFD012038BD03F03BF90F4B0F
:100CBC009B7813F0040F17D100240D4B1C601248C5
:100CCC0012494FF49F72184B03F06CF94FF47A7081
:100CDC00FFF7E2FD154803F045F9064801210A46E5
:100CEC0003F040F9204638BD012038BDE401002056
:100CFC00A0030020884D0008B0540008AC50000838
:100D0C0000000020B050000890500008044C00086F
:100D1C00B4500008C8500008D8500008E45000082F
:100D2C00E8500008F8500008A0500008A04F000838
:100D3C0070B54F4803F016F90020FFF7D3FC0025DF
:100D4C0001262C468CE04B4B5B7813F0010F2ED018
:100D5C00484B5B7813F0040F2BD0464BDB7813F029
:100D6C00080F28D0434BDB7813F0040F25D0414BF0
:100D7C00DB7813F0020F22D03E4BDB7813F0010F1F
:100D8C001FD03C4B9B7813F0010F1CD0394B9B7838
:100D9C0013F0080F19D0374B5B7813F0080F16D0EF
:100DAC00344B9B7813F0040F13D1012312E0012371
:100DBC0010E001230EE001230CE001230AE00123E3
:100DCC0008E0012306E0012304E0012302E00123F3
:100DDC0000E000239BB15CB11E2C0EDD264B83FB87
:100DEC000432E317C3EB620303EB83039C4204D18D
:100DFC00FFF762FE061C18BF0126013400E0002438
:100E0C00ADB91C4B9B7813F0020F10D11B4B1B7808
:100E1C001BB90122194B1A7002E00022174B1A70F1
:100E2C00134803F09FF80020FFF75CFC0125114BE1
:100E3C009B7813F0020F00D00025104B1B78012B70
:100E4C000CD10F480D21012203F08CF80D4803F052
:100E5C0089F8084803F058FB03F064F8FFF720FD0D
:100E6C00002E7FF470AF0EB1002070BD012070BD5C
:100E7C00A04F0008E401002067666666A40300200A
:100E8C00884D00085C4F000808B5FFF7EBFBFFF737
:100E9C00F5FB08BD08B5FFF74BFF08BD00B583B0E7
:100EAC001C4B9A6942F001029A619B6903F00103A1
:100EBC000193019B032000F063FA6FF00B000021FB
:100ECC000A4600F07BFA6FF00A0000210A4600F097
:100EDC0075FA6FF0090000210A4600F06FFA6FF006
:100EEC00040000210A4600F069FA6FF003000021AB
:100EFC000A4600F063FA6FF0010000210A4600F088
:100F0C005DFA4FF0FF3000210A4600F057FA03B0AB
:100F1C005DF804FB0010024010B588B00368204A4D
:100F2C00934223D11F4CA36943F00803A361A36927
:100F3C0003F008030193019B4FF4407304931223B5
:100F4C00059303230793184804A900F0DDFE174A04
:100F5C00536843F002035360E36943F40013E36105
:100F6C00E36903F400130293029B17E0104A9342C7
:100F7C0014D14FF440630493122305930323079376
:100F8C00094804A900F0C0FE064BDA6942F480025D
:100F9C00DA61DB6903F480030393039B08B010BD93
:100FAC000054004000100240000C014000000140C1
:100FBC0000580040F0B58DB004460368704A934267
:100FCC0029D1704B9A6942F480429A619A6902F471
:100FDC0080420192019A9A6942F004029A619B69DB
:100FEC0003F004030293029B4FF400730893022353
:100FFC00099303230B93644C204608A900F084FE4C
:10100C004FF480630893002309930A93204608A9A0
:10101C0000F07AFEB1E05D4A934259D1594EF36922
:10102C0043F40033F361F36903F400330393039B3C
:10103C00B36943F00403B361B36903F0040304938D
:10104C00049B042308930223099303230B934E4F11
:10105C00384608A900F058FE082308930025099586
:10106C000A95384608A900F04FFE736943F0010356
:10107C007361736903F001030593059B444E454B63
:10108C00336010277760B5608023F360356175613C
:10109C00B561F561304600F031FA266374621120B7
:1010AC002946012200F08AF9112000F0C9F93846CE
:1010BC0029462A4600F082F9384600F0C1F926206C
:1010CC002946012200F07AF9262000F0B9F954E003
:1010DC00314A934251D12B4BDA6942F48022DA61C6
:1010EC00DA6902F480220692069A9A6942F010029A
:1010FC009A619B6903F010030793079B4FF480637D
:10110C0008930223099303230B93244D284608A923
:10111C0000F0FAFD4FF400630893002609960A9636
:10112C00284608A900F0F0FD1D4A536823F030034F
:10113C0043F0100353601B4D1B4B2B606E60AE6075
:10114C008023EB602E616E61AE614FF40053EB6156
:10115C00284600F0D3F965636C620D2031463246A7
:10116C0000F02CF90D2000F06BF9272031460122FC
:10117C0000F024F9272000F063F90DB0F0BD00BF9A
:10118C0000380140001002400008014000440040BB
:10119C00A8030020800002400048004000100140DD
:1011AC0000000140E003002030000240704700BF07
:1011BC00FEE700BFFEE700BFFEE700BFFEE700BF93
:1011CC00704700BF704700BF704700BF08B500F004
:1011DC00BBF800F07DF9024A13680133136008BDB7
:1011EC007008002008B5024B186B00F057FA08BDC8
:1011FC005C01002008B5024B586B00F04FFA08BD9B
:10120C009C01002008B5024802F0A6FC08BD00BFF6
:10121C009C01002008B5024802F09EFC08BD00BFEE
:10122C005C0100200F4B1A6842F001021A605968E9
:10123C000D4A0A405A601A6822F0847222F48032F5
:10124C001A601A6822F480221A605A6822F4FE028C
:10125C005A604FF41F029A604FF00062034B9A6081
:10126C00704700BF001002400000FFF800ED00E0E6
:10127C0010B54C8803B152420B79032B3BD8DFE8F5
:10128C0003F002021402944206DA121B03689A421B
:10129C00D4BFA218E2181CE094421ADDA21A4368CB
:1012AC009A42D4BFA21AE21A13E06342934206DDBB
:1012BC009A1A00688242D4BF9A1A1A1A09E0934209
:1012CC0007DA224443689A42D4BFC4EB0202C4EB4F
:1012DC000302002A02DD01230B7106E0002A02DA68
:1012EC0002230B7101E003230B71002AB8BF524299
:1012FC004A80002010BD012010BD00BF10B504466F
:10130C0001F038FF064BA3FB0030800900F0ACF86D
:10131C004FF0FF302146002200F050F8002010BDA5
:10132C00D34D621008B5074A136843F010031360DD
:10133C00032000F025F80020FFF7E0FFFFF7AEFDDB
:10134C00002008BD00200240024A136801331360DC
:10135C00704700BF18040020014B1868704700BF8D
:10136C001804002010B582B00190FFF7F5FF044679
:10137C00FFF7F2FF001B019B9842F9D302B010BD9E
:10138C0010B50446C31E042B03D90A48BA21FFF733
:10139C0067F904F00700084AD36823F4E0631B04E0
:1013AC001B0C43EA002040F0BF6040F40030D060DA
:1013BC0010BD00BF1C51000800ED00E070B50446E4
:1013CC000E4615460F2A03D91A48D221FFF748F9C1
:1013DC000F2E03D91748D321FFF742F9164BDB68C0
:1013EC00C3F30223C3F10702042A28BF0422191DE8
:1013FC00062901D9D81E00E00020012303FA02F2CD
:10140C00013A324002FA00F183405A1E2A400A4344
:10141C00002C06DA04F00F041201D2B2074B1A5555
:10142C0070BD1201D2B204F1604404F5614484F839
:10143C00002370BD1C51000800ED00E014ED00E02D
:10144C0010B5041E03DA0648E621FFF709F9610915
:10145C0004F01F040123A340024A42F8213010BDBE
:10146C001C51000800E100E00138B0F1807F0AD285
:10147C00064B5860F021064A82F823100020986031
:10148C0007221A6070470120704700BF10E000E08F
:10149C0000ED00E010B50446042805D020B1094841
:1014AC004FF4DF71FFF7DCF8042C05D1064A136802
:1014BC0043F00403136010BD034A136823F00403C4
:1014CC00136010BD1C51000810E000E0704700BF15
:1014DC0008B5FFF7FBFF08BD10B4046863604368F0
:1014EC00102B04D103689A600368D96003E0036889
:1014FC0099600368DA605DF8044B7047002800F0CF
:10150C00898010B504460368434A934215D01432BF
:10151C00934212D0143293420FD0143293420CD017
:10152C001432934209D01432934206D014329342AF
:10153C0003D03A48B521FFF793F8636843B1102BF9
:10154C0006D0B3F5804F03D03448B621FFF788F8A6
:10155C00A368402B04D01BB13048B721FFF780F8AB
:10156C00E368802B04D01BB12C48B821FFF778F826
:10157C0023694BB1B3F5807F06D0B3F5007F03D060
:10158C002648B921FFF76CF863694BB1B3F5806F4E
:10159C0006D0B3F5006F03D02048BA21FFF760F8EE
:1015AC00A3692BB1202B03D01C48BB21FFF758F8A3
:1015BC00E36963B1B3F5805F09D0B3F5005F06D082
:1015CC00B3F5405F03D01548BC21FFF749F894F8F8
:1015DC0021300BB984F82030022384F821302068A4
:1015EC00036823F47F5323F030036168A26811432E
:1015FC00E26811432269114362691143A2691143E4
:10160C00E2690A431343036000206063012384F8FA
:10161C00213010BD012070470800024054510008D1
:10162C00F8B590F82040012C34D01D4616460F46D4
:10163C000446012380F82030022380F821306A1EF2
:10164C004FF6FE739A4204D9134840F26111FFF72A
:10165C0007F82268136823F001031360204639460B
:10166C0032462B46FFF738FF2268136843F002031B
:10167C0013602268136843F0040313602268136834
:10168C0043F0080313602268136843F001031360EE
:10169C000020F8BD0220F8BD5451000810B50446D6
:1016AC00984B1A68036898498B421FD014318B42AF
:1016BC001AD014318B4214D014318B420ED0143109
:1016CC008B4208D014318B4202D14FF400010EE052
:1016DC004FF000610BE04FF4002108E04FF40041A3
:1016EC0005E04FF4006102E0802100E008210A428D
:1016FC003CD01A6812F0080F38D01A6822F0080291
:10170C001A602368804A93421FD0143293421AD035
:10171C001432934214D0143293420ED014329342AA
:10172C0008D01432934202D14FF400020EE04FF075
:10173C0000620BE04FF4002208E04FF4004205E099
:10174C004FF4006202E0802200E008226D4B5A60E8
:10175C00636B43F001036363042384F8213000239B
:10176C0084F82030236B0BB120469847654B1A68E0
:10177C00236865498B421FD014318B421AD0143127
:10178C008B4214D014318B420ED014318B4208D0C2
:10179C0014318B4202D14FF480010EE04FF0806186
:1017AC000BE04FF4802108E04FF4804105E04FF44A
:1017BC00806102E0402100E004210A4239D01A681D
:1017CC0012F0040F35D01A6812F0200F03D11A68EA
:1017DC0022F004021A6023684B4A93421FD0143241
:1017EC0093421AD01432934214D0143293420ED036
:1017FC001432934208D01432934202D14FF4800237
:10180C000EE04FF080620BE04FF4802208E04FF4C2
:10181C00804205E04FF4806202E0402200E00422A6
:10182C00384B5A60112384F82130E36A0BB12046FF
:10183C009847344B1A68236833498B421FD01431B4
:10184C008B421AD014318B4214D014318B420ED0EF
:10185C0014318B4208D014318B4202D14FF4001159
:10186C000EE04FF000710BE04FF4003108E04FF444
:10187C00005105E04FF4007102E0202100E002214C
:10188C000A423ED01A6812F0020F3AD01A6812F0CF
:10189C00200F03D11A6822F002021A6023681A4A38
:1018AC0093421FD0143293421AD01432934214D064
:1018BC00143293420ED01432934208D01432934215
:1018CC0002D14FF400120EE04FF000720BE04FF417
:1018DC00003208E04FF4005205E04FF4007202E0D1
:1018EC00202200E00222074B5A60636B63630123E2
:1018FC0084F82130002384F82030A36A0BB12046F1
:10190C00984710BD00000240080002400022044B22
:10191C00DA61044A136943F00103136101807047D3
:10192C002004002000200240134BDB6813F0100F42
:10193C0004D0124AD36943F00203D3610E4BDB6827
:10194C0013F0040F04D00D4AD36943F00103D361A3
:10195C00094BDB6913F0010F09D0084AD36943F036
:10196C000403D361044AD36923F00103D361142225
:10197C00014BDA60704700BF0020024020040020B9
:10198C00074B1B6913F0800F07D0054B054A5A60B3
:10199C0002F188325A60002070470120704700BF66
:1019AC000020024023016745034A136943F080037A
:1019BC0013610020704700BF0020024038B5044678
:1019CC00FFF7CAFC054608E0B4F1FF3F05D024B38D
:1019DC00FFF7C2FC401BA04221D8134BDB6813F06D
:1019EC00010FF1D1104BDB6813F0200F02D0202235
:1019FC000D4BDA600C4BDB6813F0100F09D10A4B5E
:101A0C00DB6913F0010F04D1074BDB6813F0040FF3
:101A1C0007D0FFF789FF012038BD032038BD032014
:101A2C0038BD002038BD00BF002002402DE9F8432E
:101A3C00364D2D7E012D66D01E4690460F4604462F
:101A4C000122324B1A76431E022B03D93048C42193
:101A5C00FEF706FEB7F1006F16D32E4B1B88802BBA
:101A6C0003D12D4B9F420FD812E0402B03D12B4BAF
:101A7C009F4209D80CE0202B03D1294B9F4203D85D
:101A8C0006E0284B9F4203D92148C521FEF7E8FD0B
:101A9C004CF25030FFF792FF034670BB012C04D080
:101AAC00022C05D14FF0020904E04FF0010901E0CE
:101ABC004FF0040900241EE02101C1F12002A1F124
:101ACC00200328FA01F106FA02F2114326FA03F375
:101ADC00194307EB440089B2FFF718FF4CF2503062
:101AEC00FFF76CFF104B1D6925F001051D610346C6
:101AFC0018B90134E4B24C45DED30021034A117607
:101B0C001846BDE8F8830220BDE8F88320040020C5
:101B1C008C510008E0F7FF1FFFFF0108FFFF0008D2
:101B2C00FF7F0008FF3F00080020024008B5012895
:101B3C0004D0094840F26721FEF792FD0022074BC2
:101B4C00DA61074B1A6942F004021A611A6942F011
:101B5C0040021A6108BD00BFC451000820040020D7
:101B6C00002002400022064BDA61064B1A6942F053
:101B7C0002021A6158611A6942F040021A617047F8
:101B8C002004002000200240574B1B7E012B00F04C
:101B9C00A98070B50E4605460122534B1A76036890
:101BAC002BB1022B03D05148B921FEF759FD2B68FC
:101BBC00022B14D14CF25030FFF700FF002840F0FC
:101BCC0089800120FFF7B2FF4CF25030FFF7F6FE90
:101BDC00024647490B6923F004030B617DE0AB68B7
:101BEC00B3F1006F16D3434A1288802A03D1424ABC
:101BFC0093420FD812E0402A03D1404A934209D8AD
:101C0C000CE0202A03D13E4A934203D806E03D4A19
:101C1C00934203D93548FA21FEF722FD354B1B8838
:101C2C00802B0AD1AB68EA6803EB8223013B324A72
:101C3C0093428CBF0023012323E0402B0AD1AB68D5
:101C4C00EA6803EB8223013B2C4A93428CBF0023AE
:101C5C00012316E0202B0AD1AB68EA6803EB822340
:101C6C00013B274A93428CBF0023012309E0AB6858
:101C7C00EA6803EB8223013B224A93428CBF002388
:101C8C0001231BB91948FB21FEF7EAFC4CF250303A
:101C9C00FFF794FE00BB4FF0FF333360AC680122BA
:101CAC0011E02046FFF75EFF4CF25030FFF786FE46
:101CBC000F4A136923F002031361024608B1346022
:101CCC000BE004F58064E968AB6803EB8123A34265
:101CDC00E7D802E0012200E001220021024B197634
:101CEC00104670BD0220704720040020C45100082B
:101CFC0000200240E0F7FF1FFFFF0108FFFF000874
:101D0C00FF7F0008FF3F00082DE9F04383B08046B9
:101D1C000F46B34B984213D003F5806398420FD013
:101D2C0003F5806398420BD003F58063984207D08B
:101D3C0003F58063984203D0AA48CF21FEF790FCAC
:101D4C003B881BB9A748D021FEF78AFC7B68012B86
:101D5C0022D9112B20D0022B1ED0122B1CD0A24A20
:101D6C00934219D002F58012934215D002F58012DD
:101D7C00934211D0A2F5F81293420DD002F58012C5
:101D8C00934209D002F58012934205D0032B03D065
:101D9C009448D121FEF764FC4FF000094E4619E13E
:101DAC000125B5403C682C40AC4240F012818C4B74
:101DBC00984513D003F5806398450FD003F58063E5
:101DCC0098450BD003F58063984507D003F58063E5
:101DDC00984503D08348DF21FEF742FC7B68122B29
:101DEC0049D00CD8022B3AD004D8002B4FD0012B61
:101DFC001ED067E0032B60D0112B24D062E07B4A0D
:101E0C00934244D008D8A2F5801293423FD002F5F9
:101E1C008032934256D13AE0754A934237D002F55C
:101E2C008032934233D0A2F5801293424AD12EE0F5
:101E3C00FB68013B022B03D96A48E721FEF710FC33
:101E4C00D7F80C903EE0FB68013B022B03D96548A8
:101E5C00EE21FEF705FCFB6803F1040932E0FB6898
:101E6C00013B022B03D95F48F521FEF7F9FBFB6818
:101E7C0003F1080926E0FB68013B022B03D9594802
:101E8C00FC21FEF7EDFBFB6803F10C091AE0BB68C3
:101E9C00022B04D9534840F20911FEF7E1FBBB6851
:101EAC0073B1012B04D1C8F810504FF0080909E0A8
:101EBC00C8F814504FF0080904E04FF0000901E095
:101ECC004FF00409FF2C01D8454601E008F1040548
:101EDC00FF2C01D8B00002E0A6F1080080002968B0
:101EEC000F23834021EA030209FA00F313432B600A
:101EFC007B6813F0805F6CD03E4B9A6942F0010214
:101F0C009A619B6903F001030193019BB008821C49
:101F1C00394B53F8221006F00305AD000F23AB40EC
:101F2C0021EA03022E4B984513D003F580639845A4
:101F3C000DD003F58063984507D003F58063984571
:101F4C0001D1032306E0042304E0022302E0012371
:101F5C0000E00023AB4013430230274A42F8203004
:101F6C007B6813F4803F05D002F58062136823432D
:101F7C00136004E0214A136823EA040313607B68AE
:101F8C0013F4003F04D01D4A53682343536004E00C
:101F9C001A4A536823EA040353607B6813F4801FC6
:101FAC0004D0164A93682343936004E0134A936861
:101FBC0023EA040393607B6813F4001F04D00F4AD8
:101FCC00D3681C43D46004E00C4AD36823EA0404AD
:101FDC00D46001360F2E7FF6E3AE03B0BDE8F0837C
:101FEC0000080140005200080000111000002110F0
:101FFC0000003110001002400000014000040140BC
:10200C0038B505460C4621B905484FF4E271FEF788
:10201C0027FBAB68234201D0012038BD002038BD1E
:10202C000052000870B5064615460C4621B9094801
:10203C004FF4F271FEF714FB012D04D9054840F260
:10204C00E511FEF70DFB0DB1346170BD2404346154
:10205C0070BD00BF005200084368114A934208D873
:10206C005800B1FBF0F0C0F30B03032B16D804207F
:10207C007047826832B903EB4300B1FBF0F040F4D7
:10208C00004007E003EB830000EB8000B1FBF0F0B5
:10209C0040F44040C0F30B0303B90120704700BF6C
:1020AC00A086010003685A6912F4806F0DD05A693A
:1020BC0022F480625A6104238363202380F8353034
:1020CC00002380F83430012070470020704700BF97
:1020DC002DE9F04106460C4690461D46FFF73CF9AB
:1020EC000746B8F1000F12D03DE0B5F1FF3F0ED01E
:1020FC0025B1FFF731F9C01BA84208D9202386F877
:10210C003530002386F834300320BDE8F081C4F369
:10211C000743012B08D133685B6924EA03039BB2A4
:10212C00003318BF012307E033689B6924EA0303DB
:10213C009BB2003318BF0123002BD6D10020BDE881
:10214C00F081B5F1FF3F0ED025B1FFF705F9C01BAB
:10215C00A84208D9202386F83530002386F834307D
:10216C000320BDE8F081C4F30743012B08D1336889
:10217C005B6924EA03039BB2B3FA83F35B0907E0C0
:10218C0033689B6924EA03039BB2B3FA83F35B09BC
:10219C00002BD6D10020BDE8F08100BFF8B5044675
:1021AC000D461646FFF7D8F8074628E023685A690B
:1021BC0012F4806F12D01A6842F400721A6022680E
:1021CC00536923F4806353610423A363202384F8AD
:1021DC003530002384F834300120F8BDB6F1FF3FD0
:1021EC000DD026B1FFF7B8F8C01BB04207D9202399
:1021FC0084F83530002384F834300320F8BDC5F35F
:10220C000743012B08D123685B6925EA03039BB2C2
:10221C00003318BF012307E023689B6925EA0303F9
:10222C009BB2003318BF0123002BBFD10020F8BD97
:10223C0070B504460E4615460268136843F4807365
:10224C0013604FF0011100222B46FFF741FF48BBF2
:10225C002369B3F5804F04D1236806F0FE061E6196
:10226C0014E0226806F44073DB1143F0F0031361B1
:10227C00204610492A46FFF791FF20B1A36B042B8F
:10228C0012D1012313E02368F6B21E6120460A49DD
:10229C002A46FFF783FF034648B1A36B042B05D1F5
:1022AC00012304E0032302E0032300E00323184688
:1022BC0070BD00BF080001000200010070B50446AB
:1022CC000D46FFF749F8064618E02046FFF7EAFEF0
:1022DC00D8B9B5F1FF3F11D025B1FFF73DF8801B00
:1022EC00A8420BD9A36B43F02003A363202384F8EB
:1022FC003530002384F83430032070BD23685B69CB
:10230C0013F0800FE1D0002070BD012070BD00BF24
:10231C0070B504460D46FFF71FF8064618E0204638
:10232C00FFF7C0FED8B9B5F1FF3F11D025B1FFF7CB
:10233C0013F8801BA8420BD9A36B43F02003A363B3
:10234C00202384F83530002384F83430032070BD0A
:10235C0023685B6913F0040FE1D0002070BD0120ED
:10236C0070BD00BF002800F0AB8038B50446036890
:10237C00544A934208D002F58062934204D05248EA
:10238C004FF4A571FEF76CF96368013B4F4A934219
:10239C0004D94D4840F24B11FEF762F9A3683BB1EA
:1023AC00B3F5804F04D048484FF4A671FEF758F9A6
:1023BC00E36823F47F7323F0030323B1424840F214
:1023CC004D11FEF74DF92369B3F5804F07D0B3F5E6
:1023DC00404F04D03C484FF4A771FEF741F96369B4
:1023EC00012B04D9384840F24F11FEF739F9A36993
:1023FC0033F0FE0304D034484FF4A871FEF730F9E3
:10240C00E36933B1402B04D02F4840F25111FEF751
:10241C0027F9236A33B1802B04D02B484FF4A971D0
:10242C00FEF71EF994F8353013F0FF0F05D1002399
:10243C0084F834302046FEF76FFD242384F83530C1
:10244C002268136823F00103136000F099FE014623
:10245C001F4BA3FB00239B0C22685360206865680C
:10246C001C4A954201D8013308E04FF4967202FBE6
:10247C0003F3194AA2FB03239B090133036225686A
:10248C002046FFF7E9FDE8612268E169236A0B4306
:10249C00136022682169E3680B43936022686169C9
:1024AC00A3690B43D3602268136843F001031360E4
:1024BC000020A063202384F8353084F8360038BD22
:1024CC000120704700540040385200087F1A060063
:1024DC0083DE1B43A0860100D34D6210F0B583B0A0
:1024EC0004461D4690F83530DBB2202B7AD10F46CE
:1024FC001646002A78D0002D78D04249012242F2AB
:10250C001073FFF7E5FD002872D194F83430012BDD
:10251C0070D0012384F834302268136823F40063EC
:10252C001360212384F83530102384F836300023CF
:10253C00A36320463946089AFFF77AFE60B1A36B75
:10254C00042B04D1002384F83430012357E00023FA
:10255C0084F83430032352E023685A6901929B6952
:10256C000193019B20E020460899FFF7A7FE48B194
:10257C00A36B042B40D12268136843F400731360DF
:10258C0001233CE02268731C31781161013DADB22E
:10259C002268516911F0040F05D025B1B31C717874
:1025AC001161013DADB21E46002DDCD120460899CB
:1025BC00FFF7AEFE034648B1A36B042B1ED1226875
:1025CC00136843F400731360012318E021680A6850
:1025DC0042F400720A60202284F83520002284F82C
:1025EC0034200CE002230AE0012308E0012306E07A
:1025FC00022304E0022302E0032300E00323184635
:10260C0003B0F0BD02001000704700BF002844D09A
:10261C0010B504460268234B9A4203D02248A621E7
:10262C00FEF71EF86368062B03D91F48A721FEF797
:10263C0017F8A368B3F5805F03D31B48A821FEF7F6
:10264C000FF82368DA6812F0010F03D0DB6813F07F
:10265C00020F24D1637B13F0FF0F04D100232373EB
:10266C002046FFF7D1FF02236373236845F25552CE
:10267C001A6021684B6823F00702636813434B60B0
:10268C0021688B6823F47F6323F00F03A268134344
:10269C008B6001236373002010BD01207047012063
:1026AC0010BD00BF0030004070520008037B012BAE
:1026BC000FD00223437303684CF6CC421A600368B4
:1026CC004AF6AA221A6001234373002303731846A7
:1026DC0070470220704700BF38B5037B012B20D018
:1026EC0004460123037302234373FEF735FE0546AC
:1026FC000AE0FEF731FE401BB0F57A7F04D90320C7
:10270C0060730023237338BD2368DA6812F0020F5C
:10271C00EFD14AF6AA221A600123637300202073BA
:10272C0038BD022038BD00BF30B583B0044620B997
:10273C00BA484FF48771FDF793FF23683BB113F050
:10274C000F0F04D1B54840F20F11FDF789FF236834
:10275C0013F0010F00F0A380636853B1B3F5803F11
:10276C0007D0B3F5A02F04D0AC4840F21511FDF7FB
:10277C0077FFAB4B5B6803F00C03042B0AD0A84B20
:10278C005B6803F00C03082B1BD1A54B5B6813F49F
:10279C00803F16D04FF4003393FAA3F3A04B1A6882
:1027AC004FF4003393FAA3F3B3FA83F303F01F034C
:1027BC0022FA03F313F0010F71D06368002B6ED172
:1027CC0019E36368B3F5803F05D1954A136843F468
:1027DC008033136026E063B903F1804303F50433BF
:1027EC001A6822F480321A601A6822F480221A6065
:1027FC0018E0B3F5A02F0CD103F18043A3F53C33C3
:10280C001A6842F480221A601A6842F480321A6004
:10281C0008E0834B1A6822F480321A601A6822F49A
:10282C0080221A606368EBB1FEF796FD054605E061
:10283C00FEF792FD401B642800F2DF824FF4003358
:10284C0093FAA3F3764B1A684FF4003393FAA3F37D
:10285C00B3FA83F303F01F0322FA03F313F0010F0F
:10286C00E6D01CE0FEF778FD054605E0FEF774FDAA
:10287C00401B642800F2C3824FF4003393FAA3F395
:10288C00674B1A684FF4003393FAA3F3B3FA83F34C
:10289C0003F01F0322FA03F313F0010FE6D12368B0
:1028AC0013F0020F00F0A0802369012B04D95B48C0
:1028BC0040F24911FDF7D4FE63691F2B04D9574828
:1028CC004FF4A571FDF7CCFE554B5B6813F00C0F64
:1028DC000AD0534B5B6803F00C03082B27D1504BE9
:1028EC005B6813F4803F22D1022393FAA3F34C4B81
:1028FC001A68022393FAA3F3B3FA83F303F01F03CA
:10290C0022FA03F313F0010F03D02369012B40F0DB
:10291C0078824348036823F0F8016369F82292FA3D
:10292C00A2F2B2FA82F293400B4303605CE023699B
:10293C009BB3012292FAA2F3B3FA83F39B0003F147
:10294C00844303F584031A60FEF706FD054605E093
:10295C00FEF702FD401B022800F25582022393FA77
:10296C00A3F32F4B1A68022393FAA3F3B3FA83F35E
:10297C0003F01F0322FA03F313F0010FE8D02848E9
:10298C00036823F0F8016369F82292FAA2F2B2FA12
:10299C0082F293400B43036026E0012393FAA3F3E6
:1029AC00B3FA83F39B0003F1844303F58403002201
:1029BC001A60FEF7D1FC054605E0FEF7CDFC401B86
:1029CC00022800F22282022393FAA3F3144B1A6812
:1029DC00022393FAA3F3B3FA83F303F01F0322FA4F
:1029EC0003F313F0010FE8D1236813F0080F5CD048
:1029FC00A369012B04D909484FF4C571FDF730FECA
:102A0C00A3696BB3012292FAA2F3B3FA83F30549DB
:102A1C0041F82320FEF7A0FC05460BE0A852000865
:102A2C000010024080044242FEF796FC401B022834
:102A3C0000F2ED81022393FAA3F293FAA3F2A34AD4
:102A4C00526A93FAA3F3B3FA83F303F01F0322FA47
:102A5C0003F313F0010FE7D00120FEF783FC24E011
:102A6C00012393FAA3F3B3FA83F30021984A42F8B3
:102A7C002310FEF771FC054605E0FEF76DFC401BCC
:102A8C00022800F2C681022393FAA3F293FAA3F26E
:102A9C008E4A526A93FAA3F3B3FA83F303F01F033B
:102AAC0022FA03F313F0010FE7D1236813F0040F9C
:102ABC0000F0A980E368012B06D9052B04D08548CA
:102ACC0040F2B711FDF7CCFD804BDA6942F0805231
:102ADC00DA61DB6903F080530193019B7E4A136832
:102AEC0043F480731360FEF737FC054605E0FEF7F0
:102AFC0033FC401B642800F28E81774B1B6813F467
:102B0C00807FF4D0E368012B05D1704A136A43F03F
:102B1C000103136222E063B903F1804303F504332C
:102B2C001A6A22F001021A621A6A22F004021A626C
:102B3C0014E0052B09D1654B1A6A42F004021A62A3
:102B4C001A6A42F001021A6208E0604B1A6A22F01B
:102B5C0001021A621A6A22F004021A62E3684BB389
:102B6C00FEF7FAFB054607E0FEF7F6FB401B41F2C9
:102B7C008833984200F25181022393FAA3F293FA1C
:102B8C00A3F3B3FA83F343F040035B09022B02D1A6
:102B9C004E4B1A6A01E04D4B5A6A022393FAA3F387
:102BAC00B3FA83F303F01F0322FA03F313F0010FBC
:102BBC00DAD028E0FEF7D0FB054607E0FEF7CCFBA9
:102BCC00401B41F28833984200F22981022393FA88
:102BDC00A3F293FAA3F3B3FA83F343F040035B0934
:102BEC00022B02D1394B1A6A01E0384B5A6A022384
:102BFC0093FAA3F3B3FA83F303F01F0322FA03F35C
:102C0C0013F0010FDAD1E369022B04D9314840F2F9
:102C1C004721FDF725FDE369002B00F002812B4ACB
:102C2C00526802F00C02082A00F0FD80022B40F0E2
:102C3C00B780236A3BB1B3F5803F04D025484FF4ED
:102C4C001471FDF70DFD636A73B3B3F5802F2BD0B0
:102C5C00B3F5002F28D0B3F5402F25D0B3F5801F46
:102C6C0022D0B3F5A01F1FD0B3F5C01F1CD0B3F5F5
:102C7C00E01F19D0B3F5001F16D0B3F5101F13D0F9
:102C8C00B3F5201F10D0B3F5301F0DD0B3F5401F96
:102C9C000AD0B3F5501F07D0B3F5601F04D00D4810
:102CAC0040F25121FDF7DCFC4FF0807393FAA3F353
:102CBC00B3FA83F39B0003F1844303F584030022EE
:102CCC001A60FEF749FB05460EE000BF00100240FB
:102CDC0080044242A852000800700040FEF73CFB02
:102CEC00401B022800F2A1804FF0007393FAA3F36B
:102CFC00514B1A684FF0007393FAA3F3B3FA83F3B2
:102D0C0003F01F0322FA03F313F0010FE6D1236A39
:102D1C00B3F5803F10D1A3683BB1B3F5003F04D0AD
:102D2C00464840F26721FDF79BFC43494B6823F46E
:102D3C000032A36813434B603F48436823F474117B
:102D4C00236A626A13430B4343604FF0807393FA18
:102D5C00A3F3B3FA83F39B0003F1844303F58403D9
:102D6C0001221A60FEF7F8FA044604E0FEF7F4FAC2
:102D7C00001B02285BD84FF0007393FAA3F32E4B81
:102D8C001A684FF0007393FAA3F3B3FA83F303F0CA
:102D9C001F0322FA03F313F0010FE7D0002049E0E0
:102DAC004FF0807393FAA3F3B3FA83F39B0003F110
:102DBC00844303F5840300221A60FEF7CDFA04461F
:102DCC0004E0FEF7C9FA001B022832D84FF000735A
:102DDC0093FAA3F3184B1A684FF0007393FAA3F30A
:102DEC00B3FA83F303F01F0322FA03F313F0010F7A
:102DFC00E7D100201EE001201CE003201AE0032094
:102E0C0018E0012016E0032014E0032012E0032058
:102E1C0010E003200EE003200CE003200AE0032066
:102E2C0008E0002006E0012004E0032002E003207B
:102E3C0000E0032003B030BD00100240A85200088F
:102E4C0030B486B01E4D02AC28686968AA68EB687D
:102E5C000FC42B8AADF804301A4B5A6802F00C03DD
:102E6C00082B28D102F470134FF4701191FAA1F1D0
:102E7C00B1FA81F1CB4006A90B4413F8103C12F4C3
:102E8C00803F14D00F4A526802F400324FF40031E4
:102E9C0091FAA1F1B1FA81F1CA4006A90A4412F8DB
:102EAC00140C094AB2FBF0F003FB00F004E00748F5
:102EBC0000FB03F000E0044806B030BC704700BFD4
:102ECC00E04B00080010024000127A0000093D009F
:102EDC0070B50D46044620B9A1484FF42F71FDF78B
:102EEC00BFFB236813F00F0F04D19D4840F2BD21A6
:102EFC00FDF7B6FB022D04D9994840F2BE21FDF72F
:102F0C00AFFB984B1B6803F00703AB420BD2954AFF
:102F1C00136823F007032B431360136803F00703B4
:102F2C00AB4240F00C81236813F0020F1DD0A36854
:102F3C00A3B1802B12D0902B10D0A02B0ED0B02B85
:102F4C000CD0C02B0AD0D02B08D0E02B06D0F02B05
:102F5C0004D0834840F2D721FDF782FB82494B68AD
:102F6C0023F0F002A36813434B60236813F0010FA6
:102F7C0000F081806368022B04D9794840F2DE218D
:102F8C00FDF76EFB6268012A13D14FF4003393FAFC
:102F9C00A3F3754B19684FF4003393FAA3F3B3FA08
:102FAC0083F303F01F0321FA03F313F0010F28D16D
:102FBC00C7E0022A13D14FF0007393FAA3F36A4BC4
:102FCC0019684FF0007393FAA3F3B3FA83F303F089
:102FDC001F0321FA03F313F0010F12D1B3E0022304
:102FEC0093FAA3F3604B1968022393FAA3F3B3FA91
:102FFC0083F303F01F0321FA03F313F0010F00F026
:10300C00A48059494B6823F0030313434B60FEF72C
:10301C00A3F906466368012B0FD107E0FEF79CF974
:10302C00801B41F28833984200F291804E4B5B68D2
:10303C0003F00C03042BF1D11DE0022B16D107E099
:10304C00FEF78AF9801B41F28833984200F28180A6
:10305C00454B5B6803F00C03082BF1D10BE0FEF73A
:10306C007BF9801B41F28833984274D83E4B5B68E5
:10307C0013F00C0FF3D13B4B1B6803F00703AB426F
:10308C000AD9384A136823F007032B4313601368DB
:10309C0003F00703AB4260D1236813F0040F19D07F
:1030AC00E36883B1B3F5806F0DD0B3F5A06F0AD090
:1030BC00B3F5C06F07D0B3F5E06F04D0284840F2E9
:1030CC003231FDF7CDFA28494B6823F4E062E3680E
:1030DC0013434B60236813F0080F1AD0236983B194
:1030EC00B3F5806F0DD0B3F5A06F0AD0B3F5C06FF8
:1030FC0007D0B3F5E06F04D0194840F23931FDF731
:10310C00AFFA194A536823F46053216943EAC103A7
:10311C005360FFF795FE144B5B6803F0F003F0224D
:10312C0092FAA2F2B2FA82F2D340104AD35CD8409F
:10313C000F4B18600020FEF7E1F8002070BD012055
:10314C0070BD012070BD012070BD012070BD032039
:10315C0070BD032070BD032070BD012070BD00BF89
:10316C00A852000800200240001002400451000840
:10317C0054000020014B1868704700BF5400002019
:10318C0008B5FFF7F7FF074B5B6803F4E0634FF4F8
:10319C00E06292FAA2F2B2FA82F2D340024AD35C13
:1031AC00D84008BD001002401451000808B5FFF7C4
:1031BC00E1FF074B5B6803F460534FF4605292FAE3
:1031CC00A2F2B2FA82F2D340024AD35CD84008BDD4
:1031DC000010024014510008F0B583B00446036897
:1031EC0013F0130F03D15F487E21FDF739FA2368E2
:1031FC0013F0010F7ED0636863B1B3F5807F09D003
:10320C00B3F5007F06D0B3F5407F03D05548842139
:10321C00FDF726FA544BDA6942F08052DA61DB6929
:10322C0003F080530193019B504A136843F480735D
:10323C001360FEF791F8054605E0FEF78DF8401B8C
:10324C00642800F28880494B1B6813F4807FF4D00B
:10325C00454B1B6A13F4407345D0626802F440720C
:10326C009A4240D04048016A21F440764FF48033B2
:10327C0093FAA3F2B2FA82F23D4D012745F822707F
:10328C0093FAA3F3B3FA83F3002245F823200662E2
:10329C0011F0010F27D0FEF75FF8054606E0FEF7A8
:1032AC005BF8401B41F28833984256D8022393FABC
:1032BC00A3F293FAA3F3B3FA83F343F040035B094D
:1032CC00022B02D1284B1A6A01E0274B5A6A0223BF
:1032DC0093FAA3F3B3FA83F303F01F0322FA03F375
:1032EC0013F0010FDBD020490B6A23F440726368A2
:1032FC0013430B62236813F0020F15D0A36863B15C
:10330C00B3F5804F09D0B3F5004F06D0B3F5404F5D
:10331C0003D01448BA21FDF7A3F913494B6823F4E1
:10332C004042A36813434B60236813F0100F16D070
:10333C00E368B3F5800F05D023B10A484FF48B71C5
:10334C00FDF78EF908494B6823F48002E3681343B8
:10335C004B60002004E0032002E0032000E000208A
:10336C0003B0F0BDE05200080010024000700040B5
:10337C0000044242704700BF704700BF704700BF57
:10338C00704700BF704700BF10B5044603681A6948
:10339C0012F0020F17D0DA6812F0020F13D06FF090
:1033AC0002021A610123037603689B6913F0030F71
:1033BC0002D0FFF7E3FF04E0FFF7DEFF2046FFF744
:1033CC00DFFF0023237623681A6912F0040F19D04B
:1033DC00DA6812F0040F15D06FF004021A610223A0
:1033EC00237623689B6913F4407F03D02046FFF7B4
:1033FC00C5FF05E02046FFF7BFFF2046FFF7C0FFE3
:10340C000023237623681A6912F0080F19D0DA68A2
:10341C0012F0080F15D06FF008021A6104232376FE
:10342C002368DB6913F0030F03D02046FFF7A6FFD8
:10343C0005E02046FFF7A0FF2046FFF7A1FF002381
:10344C00237623681A6912F0100F19D0DA6812F07B
:10345C00100F15D06FF010021A6108232376236821
:10346C00DB6913F4407F03D02046FFF787FF05E0AC
:10347C002046FFF781FF2046FFF782FF00232376CB
:10348C0023681A6912F0010F09D0DA6812F0010FE3
:10349C0005D06FF001021A612046FFF76BFF23681D
:1034AC001A6912F0800F09D0DA6812F0800F05D07B
:1034BC006FF080021A61204600F022F823681A6926
:1034CC0012F0400F09D0DA6812F0400F05D06FF0FF
:1034DC0040021A612046FFF755FF23681A6912F063
:1034EC00200F09D0DA6812F0200F05D06FF02002FF
:1034FC001A61204600F002F810BD00BF704700BFF3
:10350C00704700BF90F83930DBB2122B01D0322B50
:10351C002AD18368B3F5805F0FD1036A02681B88D8
:10352C00C3F30803536003691BB9036A02330362D4
:10353C0009E0036A0133036205E00268036A591C5F
:10354C0001621B785360C38C013B9BB2C3846BB983
:10355C000268D36823F08003D3600268D36843F019
:10356C004003D36000207047022070470020704752
:10357C002DE9F84381464268834B9A4204D983482B
:10358C0040F25271FDF76CF8D9F80C303BB1B3F541
:10359C00005F04D07D4840F25371FDF761F8D9F813
:1035AC00103053B1B3F5806F07D0B3F5C06F04D0B2
:1035BC00764840F25471FDF753F8D9F8143033F0D3
:1035CC000C0200D123B9714840F25571FDF748F84F
:1035DC00D9F800100B6923F44052D9F80C3013437E
:1035EC000B61D9F80820D9F810301A43D9F81430E7
:1035FC001343D9F80010CA6822F4B05222F00C021E
:10360C001343CB60D9F800104B6923F44072D9F8FE
:10361C00183013434B61D9F800505D4B9D4259D182
:10362C00FFF7C4FD00EB800000EB8000D9F80440EC
:10363C00A400B0FBF4F4574EA6FB04346409240137
:10364C00FFF7B4FD00EB800000EB8000D9F80430EC
:10365C009B00B0FBF3F7FFF7A9FD00EB800000EB3C
:10366C008000D9F804309B00B0FBF3F3A6FB0323D6
:10367C005B094FF0640808FB13731B013233A6FB84
:10368C0003235B0903F0F0031C44FFF78FFD00EBF1
:10369C00800000EB8000D9F804309B00B0FBF3F7FE
:1036AC00FFF784FD00EB800000EB8000D9F80430BC
:1036BC009B00B0FBF3F3A6FB03235B0908FB13731E
:1036CC001B013233A6FB0323C3F343131C44AC602E
:1036DC00BDE8F883FFF754FD00EB800000EB8000A1
:1036EC00D9F80440A400B0FBF4F42A4EA6FB043431
:1036FC0064092401FFF744FD00EB800000EB80001F
:10370C00D9F804309B00B0FBF3F7FFF739FD00EB61
:10371C00800000EB8000D9F804309B00B0FBF3F381
:10372C00A6FB03235B094FF0640808FB13731B0112
:10373C003233A6FB03235B0903F0F0031C44FFF7B1
:10374C001FFD00EB800000EB8000D9F804309B00DB
:10375C00B0FBF3F7FFF714FD00EB800000EB8000EB
:10376C00D9F804309B00B0FBF3F3A6FB03235B09F1
:10377C0008FB13731B013233A6FB0323C3F3431360
:10378C001C44AC60BDE8F88320AA44001853000820
:10379C00003801401F85EB51002872D010B504464B
:1037AC0083690BB30368384A93420CD0A2F5744278
:1037BC00934208D002F58062934204D0334840F221
:1037CC000711FCF74DFFA369FBB1B3F5807F1CD04B
:1037DC00B3F5007F19D0B3F5407F16D02B484FF4CA
:1037EC008471FCF73DFF10E00368274A93420CD02C
:1037FC00A2F57442934208D002F58062934204D041
:10380C0022484FF48671FCF72BFFA3683BB1B3F54C
:10381C00805F04D01D484FF48771FCF721FFE369EA
:10382C0023B11A4840F20F11FCF71AFF94F8393003
:10383C0013F0FF0F05D1002384F838302046FDF734
:10384C00B9FB022384F839302268D36823F400537F
:10385C00D3602046FFF78CFE2268136923F4904353
:10386C0013612268536923F02A0353612268D368D9
:10387C0043F40053D3600020E063012384F8393013
:10388C0010BD0120704700BF0038014018530008DC
:10389C0010B50446134690F83920D2B2012A01D053
:1038AC00222A36D1002936D0002B36D094F8382075
:1038BC00012A34D0012284F838202162A384E384C5
:1038CC000022E26394F83920D2B2222A03D13222A8
:1038DC0084F8392002E0122284F83920226B114836
:1038EC009062226B1048D062226B104810632268E1
:1038FC00206B0432FDF794FE23686FF040021A60CF
:10390C002268536943F080035361002084F8380027
:10391C0010BD022010BD012010BD012010BD0220E1
:10392C0010BD00BFD5390008353A0008453B0008EA
:10393C0038B504460D46134690F83920D2B2012A08
:10394C0001D0122A32D1002D32D0002B32D094F873
:10395C003820012A30D0012284F83820A562A385B2
:10396C000022E26394F83920D2B2122A03D1322217
:10397C0084F8392002E0222284F83920626B0F4946
:10398C009162626B0E49D162626B0E4911632168C0
:10399C00606B04312A46FDF743FE2268536943F0FD
:1039AC0040035361002084F8380038BD022038BD34
:1039BC00012038BD012038BD022038BD413A000835
:1039CC00353B0008453B000808B5436A026812689D
:1039DC0012F0200F0CD10022DA8419684A6922F007
:1039EC0080024A611A68D36843F04003D36008BD73
:1039FC00184601F087F808BD08B50268D36823F0B3
:103A0C004003D36090F83930DBB2322B03D1222340
:103A1C0080F8393002E0012380F8393001F072F877
:103A2C00002008BD704700BF08B5406AFFF7FAFFD9
:103A3C0008BD00BF08B5436A0268126812F0200F77
:103A4C0012D10022DA8519684A6922F040024A61D3
:103A5C0093F83920D2B2322A03D1122283F83920BA
:103A6C0002E0012283F83920184601F03BF808BD2A
:103A7C0008B590F83930DBB2222B01D0322B4CD167
:103A8C008368B3F5805F13D1836A026942B9026817
:103A9C005268C2F308021A80836A0233836218E008
:103AAC0002685268D2B21A80836A0133836210E0D2
:103ABC00036933B9836A5A1C8262026852681A70AD
:103ACC0007E0826A531C836203685B6803F07F0320
:103ADC001370C38D013B9BB2C38503BB0268D368D3
:103AEC0023F02003D36090F83930DBB2322B03D1B2
:103AFC00122380F839300CE00268D36823F4807309
:103B0C00D3600268536923F001035361012380F8E9
:103B1C00393000F0E7FF002008BD022008BD00206E
:103B2C0008BD00BF704700BF08B5406AFFF7FAFF39
:103B3C0008BD00BF704700BF08B5406A0023C385AD
:103B4C00C384012380F83930C36B43F01003C36383
:103B5C00FFF7F0FF08BD00BF10B582B00446036844
:103B6C001968DA6802F4807211F0010F04D01AB1EE
:103B7C00C26B42F00102C26319685A6902F0010279
:103B8C0011F0020F04D01AB1E16B41F00401E163B2
:103B9C00196811F0040F04D01AB1E16B41F0020165
:103BAC00E163196811F0080F04D01AB1E26B42F00E
:103BBC000802E2631A68DB6803F0200312F0200F9E
:103BCC0003D013B12046FFF753FF23681A68DB6854
:103BDC0003F0800312F0800F03D013B12046FFF7DF
:103BEC0091FC23681A68DB6803F0400312F0400F65
:103BFC0003D013B12046FFF7FFFEE36B5BB12368E4
:103C0C001A6801925B680193019B012384F8393097
:103C1C002046FFF78FFF02B010BD00BF014B1860AC
:103C2C00704700BF40040020014B5860704700BF34
:103C3C0040040020014B9860704700BF40040020F6
:103C4C00014BD860704700BF4004002010B50446FB
:103C5C00032803D905482321FCF702FD044B53F834
:103C6C0024000449FEF750F810BD00BF6053000853
:103C7C00505300084004002070B504460E4615460B
:103C8C00032803D905482821FCF7EAFC044B53F818
:103C9C0024003146EAB2FEF7C5F970BD6053000846
:103CAC005053000838B504460D46032803D905487F
:103CBC002D21FCF7D5FC044B53F824002946FEF7C4
:103CCC009FF938BD605300085053000838B50446BE
:103CDC000D46012803D904482B21FCF7C1FC034BEA
:103CEC0053F824305D6038BD9053000888530008A9
:103CFC0008B5054B53F82000FEF734FB08B1012042
:103D0C0008BD002008BD00BF8853000810B582B064
:103D1C000C46134641000A22009205482246FEF743
:103D2C00DDFB10B14FF0FF3000E0002002B010BD01
:103D3C0058000020014B5860704700BFD000002095
:103D4C00014B9860704700BFD000002008B50548B3
:103D5C00FEF75CFC20B90348FEF7A8FC002008BD68
:103D6C00012008BDD000002008B50248FEF7B4FCC5
:103D7C0008BD00BFD000002008B50248FFF704FBC7
:103D8C0008BD00BFE000002008B50248FFF7FCFAB0
:103D9C0008BD00BFE000002038B504460D460228DF
:103DAC0003D904483821FCF75BFC034B53F824304F
:103DBC005D6038BDC4530008B853000808B5054B06
:103DCC0053F82000FFF7E8FC08B1012008BD0020E3
:103DDC0008BD00BFB853000808B503460A4605489D
:103DEC001946FFF755FD10B14FF0FF3008BD00200C
:103DFC0008BD00BF5C01002008B582B20448FFF783
:103E0C0097FD10B14FF0FF3008BD002008BD00BF7A
:103E1C009C01002008B5FDF7B3FD08B1022008BDD8
:103E2C00002008BD30B583B004460D460F48012371
:103E3C00436000220260C360846001A9FDF7A4FE08
:103E4C0008B104200FE0002306E034F813101346E9
:103E5C004FF6FF72914205D15A1CB2EB550FF4D3B9
:103E6C00002000E0032003B030BD00BF5004002050
:103E7C0008B5FDF799FD08B1012008BD002008BD6B
:103E8C00F8B505460C461646FFF7C4FFD8B92046D0
:103E9C003146FFF7C7FFB8B927460CE00120214691
:103EAC002A880023FDF7C2FD78B92A8823889A4214
:103EBC000DD102340235631CF2199342EED3FFF795
:103ECC00D7FF30B9F8BDF8BDF8BD0620F8BD052008
:103EDC00F8BDF8BD0FB400B583B004A951F8040BBC
:103EEC00019100F0AFF803B05DF804EB04B070473B
:103EFC000A4B19680A4B1B7813F0FF0F04D10B18EF
:103F0C00064A12689342F5D80844044B1B68984241
:103F1C0001D8012070470020704700BF70080020B6
:103F2C00DC01002008B56420FFF7E2FF98B90A4BCA
:103F3C001B686BB1084A591C11600A21197007489B
:103F4C001168091A89B2FFF747FF0022044B1A7057
:103F5C00024A014B1A6008BD600800206004002072
:103F6C00DC0100200FB430B583B006AC54F8045B10
:103F7C006420FFF7BDFF01942846214600F062F84B
:103F8C00064B1B68064A9B1AB3F5617F01DDFFF7F0
:103F9C00C9FF03B0BDE8304004B070476008002092
:103FAC006004002008B42DE9F04183B00646884631
:103FBC00174609AC54F8045B6420FFF799FF0A48D4
:103FCC0041463A463346FFF785FF01942846214681
:103FDC0000F038F80548FFF77DFFFFF7A3FF03B0AB
:103FEC00BDE8F04101B07047F05300086C55000873
:103FFC000122014B1A707047DC01002010B50446F9
:10400C000A2802D10D20FFF7F9FF074B1B6823B1DB
:10401C00591C054A11601C7010BD044B1B680BB178
:10402C002046984710BD00BF60080020640800209F
:10403C0010B5044602E00134FFF7E0FF20780028B9
:10404C00F9D110BD2DE9F04F85B006468846741C99
:10405C003078002800F0ED80252803D0FFF7CEFF44
:10406C002646F4E7B31C7078302803D1F31CB078E3
:10407C00012706E02D2803D1F31CB078022700E0BD
:10408C0000271E46002406E004EB8404640004446C
:10409C00303C30780136A0F13003DBB2092BF3D978
:1040AC006C2801D04C2803D147F004073078013636
:1040BC00002800F0BE80602803D9A0F12003DBB2F9
:1040CC0000E00346A3F14202162A3ED8DFE802F0D4
:1040DC004030373D3D3D3D3D3D3D3D3D3D433D3D0E
:1040EC003D0C3D373D3D3A00D8F800A008F10408DE
:1040FC00002500E001351AF80530002BFAD103E059
:10410C002020FFF77BFF4D4617F0020F04D105F17D
:10411C000109A542F4D34D465046FFF789FF03E051
:10412C002020FFF76BFF3D466F1CA542F8D38EE7AE
:10413C0098F8000008F10408FFF760FF87E74FF0DC
:10414C000A0C0AE04FF0100C07E0FFF757FF7EE770
:10415C004FF0020C01E04FF0080C17F0040F04D0E4
:10416C00D8F8009008F104080AE0442B04D1D8F8E0
:10417C00009008F1040803E0D8F8009008F1040856
:10418C00442B06D1B9F1000F03DAC9F1000947F04D
:10419C000807002100E02946B9FBFCFE0CFB1E932E
:1041AC00DBB2F146092B06D9782801D1272200E091
:1041BC0007221A44D3B24D1C04AA1144303301F81F
:1041CC00103CBEF1000F01D00F2DE4D917F0080FF1
:1041DC0006D02B4604AA134401352D2203F8102CCB
:1041EC0017F0010F02D04FF0300B01E04FF0200B15
:1041FC00A94603E05846FFF701FFD14617F0020F1E
:10420C0004D109F1010AA145F4D3D146013D04AB17
:10421C002B4413F8100CFFF7F1FE002DF6D103E040
:10422C002020FFF7EBFEA94609F10105A145F7D3C4
:10423C000DE705B0BDE8F08F00B583B043788DF87D
:10424C000430DB438DF80530007801A9022200F020
:10425C000DF803B05DF804FB08B503460248197865
:10426C005A78FFF77FFE08BD0054000808B5FFF729
:10427C004DFD08BD10B5002409E004EB44035B00C0
:10428C000B48184400F044F800B110BD0134062C62
:10429C00F3DD002407E0074800EB4400FFF7CCFFF8
:1042AC0000B110BD0134002CF5DD002010BD00BFA5
:1042BC00280000202400002010B5002407E004EBA7
:1042CC0044035B000848184400F04EF80134062CF7
:1042DC00F5DD002405E0054800EB4400FFF7BCFFCA
:1042EC000134002CF7DD10BD280000202400002034
:1042FC0008B500200549FFF7E9FC0020FFF7F8FCA2
:10430C0008B1012008BD002008BD00BF400D03000E
:10431C0030B585B0054643880F4CA4FB0324E40854
:10432C00B4F57A7F08D30278009201930B480C49BC
:10433C0020220C4BFFF736FE2A79230A43EA82032C
:10434C008DF80C308DF80D40287803A90222FFF768
:10435C008DFF05B030BD00BFCDCCCCCCE4500008F7
:10436C00505400081054000810B504460F4821782A
:10437C00FFF7F8FD2379032B12D8DFE803F00206D0
:10438C000A0E0B48FFF7EEFD0AE00A48FFF7EAFDBC
:10439C0006E00948FFF7E6FD02E00848FFF7E2FDFA
:1043AC0007486188FFF7DEFD10BD00BF28540008E8
:1043BC0034540008385400083C5400084054000899
:1043CC004454000838B505460C4602204FF41651EB
:1043DC00FFF7E2FC0220FFF7F1FCC8B90D4B1B689C
:1043EC001C4408202946FFF707FD04E00A48FFF7A4
:1043FC00B9FDFFF797FD074B1B689C4203D9074B90
:10440C001B68002BF2D1054B186808B1012038BD90
:10441C0038BD00BF700800205C540008E00100208B
:10442C0010B504460B4B1B68002B03DD094A1368BF
:10443C00013B1360002205E0A35C580903F01F0345
:10444C000B540132072AF7DD08202146FFF7D4FC74
:10445C0010BD00BFE00100204379094A526A9B1A43
:10446C000C2B0ADC43799B1A13F10C0F02DB4079FD
:10447C00801A70476FF00C0070470D20704700BF1A
:10448C00140200200379094A926A9B1A0C2B0ADC4D
:10449C0003799B1A13F10C0F02DB0079801A704719
:1044AC006FF00C0070470D20704700BF1402002005
:1044BC00C379094AD26A9B1A0C2B0ADCC3799B1A62
:1044CC0013F10C0F02DBC079801A70476FF00C00EF
:1044DC0070470D20704700BF140200208379094AF1
:1044EC00126B9B1A0C2B0ADC83799B1A13F10C0FA1
:1044FC0002DB8079801A70476FF00C0070470D203A
:10450C00704700BF14020020F0B583B00446437816
:10451C0013F0010F0CBF0125002515B17048FFF7F2
:10452C0021FD7048FFF71EFD15B16F48FFF71AFD0E
:10453C00637813F0040F0CBF0125002515B16848F2
:10454C00FFF710FD6948FFF70DFD15B16648FFF741
:10455C0009FD637813F0020F0CBF0125002515B17E
:10456C005F48FFF7FFFC6248FFF7FCFC15B15E48A3
:10457C00FFF7F8FC637813F0080F0CBF012500253A
:10458C0015B15748FFF7EEFC5A48FFF7EBFC15B195
:10459C005548FFF7E7FCA37813F0080F0CBF012573
:1045AC00002515B14E48FFF7DDFC5348FFF7DAFC48
:1045BC0015B14D48FFF7D6FCA37813F0040F0CBFD0
:1045CC000125002515B14648FFF7CCFC4B48FFF7F9
:1045DC00C9FC15B14448FFF7C5FCA37813F0020FD2
:1045EC000CBF0125002515B13D48FFF7BBFC444825
:1045FC00FFF7B8FC15B13C48FFF7B4FCA37813F0F7
:10460C00010F0CBF0125002515B13548FFF7AAFC99
:10461C003C48FFF7A7FC15B13348FFF7A3FCE37840
:10462C0013F0080F0CBF0125002515B12C48FFF71E
:10463C0099FC3548FFF796FC15B12B48FFF792FC17
:10464C00E37813F0040F0CBF0125002515B12448A5
:10465C00FFF788FC2D48FFF785FC15B12248FFF7C2
:10466C0081FCE37813F0020F0CBF0125002515B176
:10467C001B48FFF777FC2648FFF774FC15B11A4866
:10468C00FFF770FCE37813F0010F0CBF0125002538
:10469C0015B11348FFF766FC1E48FFF763FC15B114
:1046AC001148FFF75FFC1C48FFF75CFC2046FFF746
:1046BC00D3FE07462046FFF7E5FE06462046FFF7E9
:1046CC00F7FE05462046FFF709FF009013483946D0
:1046DC0032462B46FFF746FC002003B0F0BD00BF6E
:1046EC00605400087054000878540008885400087E
:1046FC009054000898540008A0540008A8540008CE
:10470C00AC540008B4540008BC540008C45400084D
:10471C00CC540008D45400086C550008DC54000834
:10472C000020704700B595B009230A934FF48033ED
:10473C000B9300220C9201221092022211921293DE
:10474C004FF4E01313930AA8FDF7EEFF38B122489B
:10475C002249C022224BFFF725FC012038E00F2311
:10476C00059302210691002307934FF4806208926F
:10477C00099305A8FEF7ACFB38B117481749CB22B3
:10478C00184BFFF70FFC012022E0022301934FF49A
:10479C000043039301A8FEF71FFD38B10E480F49E3
:1047AC00D222114BFFF7FEFB012011E0FEF7E2FCD9
:1047BC004FF47A73B0FBF3F0FCF756FE0420FCF7D1
:1047CC0069FE4FF0FF3000210A46FCF7F7FD002090
:1047DC0015B05DF804FB00BFE45000083456000827
:1047EC00FC5400080C5500082055000800B585B095
:1047FC00284B9A6942F004029A619A6902F0040209
:10480C000092009A9A6942F008029A619A6902F041
:10481C0008020192019A9A6942F010029A619A690F
:10482C0002F010020292029A9A6942F020029A61F6
:10483C009B6903F020030393039B4FF40050FFF795
:10484C00EDF90020FFF7F0F90020FFF7F3F9022053
:10485C00FFF7FCF92020FFF7E1F90120FFF7E4F95D
:10486C000220FFF7EDF90020FFF7F0F91020FFF719
:10487C00D5F90948FFF7D8F90020FFF7DBF902203A
:10488C00FFF7E4F9002020210246FFF7F5F905B007
:10489C005DF804FB001002400000111070B5FCF72D
:1048AC0041FD002848D1FFF73DFF002846D10120EB
:1048BC00FFF784FAFFF736FBFFF71AFD04460028D2
:1048CC003DD1FFF793FFFBF76BFE1E481E499B2261
:1048DC001E4BFFF767FB1E481E49FFF773FD04468E
:1048EC0038B11D4818499D221C4BFFF75BFB012476
:1048FC0025E0144E144D30462946A122184BFFF7E3
:10490C0051FB30462946A422164BFFF74BFB0220E5
:10491C00FFF710FAFA20FFF713FAFFF717FA05461C
:10492C0038B10D480849A9220F4BFFF73BFB2C4629
:10493C0005E0FBF735FE02E0012400E001242046EF
:10494C0070BD00BF905000082C5600083C55000864
:10495C00E4010020A0860100E4500008585500082E
:10496C0070550008845500089455000808B5FBF7ED
:10497C001DFE08BD08B5FFF77DFC08BD00B583B072
:10498C00FFF78CFF50B100903A483B4934223B4B27
:10499C00FFF708FB6420FFF7ABFA67E00A20FFF78C
:1049AC00BFFE50B10090334833493A22344BFFF7E5
:1049BC00F9FA6420FFF79CFA58E00022314B1A6098
:1049CC0031482D494122314BFFF7ECFA3048FFF7C3
:1049DC00C9FAFFF7C9F9FFF7C9FF2A4B1A682D4B23
:1049EC00A3FB02131B09322101FB1323092B0ED845
:1049FC002948FFF789FDFFF75FFC284B19782848F9
:104A0C00FFF7B0FAFFF78EFA2648FFF7ABFA1D4B0B
:104A1C001A68254BA3FB0213DB0803EB83035B0033
:104A2C00D31A042BF3D1FFF7A5FF30B10090114836
:104A3C00114956221D4BFFF7B5FA124B1A681A4B47
:104A4C00A3FB0213DB0803EB83035B009A42F4D154
:104A5C00174B1A6801321A601B68132BB9D9054819
:104A6C0005495C22134BFFF79DFAFEE7012003B0CA
:104A7C005DF804FBE4500008F4540008B05500083D
:104A8C00C45500087008002090500008E05500083C
:104A9C00EC5500081F85EB51E4010020EC010020CF
:104AAC00F8550008F0550008CDCCCCCCFC550008CE
:104ABC00740800201856000810B582B00446084B44
:104ACC001B68019301E0FFF74FF9019B2344044A53
:104ADC0012689342F7D8FFF747F902B010BD00BF38
:104AEC007008002008B504480449FFF799FC00221F
:104AFC00034B1A6008BD00BF68080020E4010020C9
:104B0C007408002008B5FFF773FA08BD002103E014
:104B1C000B4B5B58435004310A480B4B42189A42DA
:104B2C00F6D30A4A02E0002342F8043B084B9A42AF
:104B3C00F9D3FCF777FB00F00FF8FFF71FFF704776
:104B4C004C56000800000020F0010020F00100206D
:104B5C0078080020FEE700000E4B70B51E460E4C88
:104B6C000025E41AA410A54204D056F82530984725
:104B7C000135F8E700F022F8084B094C1E46E41A00
:104B8C00A4100025A54204D056F8253098470135CD
:104B9C00F8E770BD44560008445600084456000817
:104BAC004856000810B5431E0A44914204D011F82F
:104BBC00014B03F8014FF8E710BD0000F8B500BF3A
:104BCC00F8BC08BC9E467047F8B500BFF8BC08BCE2
:044BDC009E4670473A
:104BE00002030405060708090A0B0C0D0E0F10102E
:104BF00001020000C8000000C8000000C80000005A
:104C00009001000061645F6B65795461736B000013
:104C100052435F61646A7573745F5A65726F000016
:104C20000000000014000000ECFFFFFF6C656674DC
:104C30002061646A757374000000000025000000A4
:104C4000000000000000000014000000ECFFFFFF67
:104C500072696768742061646A757374000000008B
:104C6000250000000000000032000000C800000025
:104C7000000000007374656572696E672074696D69
:104C8000650000002A31306D730000000A0000004A
:104C9000E70300000100000072632074696D656F16
:104CA00075740000000000007300000000000000A8
:104CB0000400000006000000020000007263206390
:104CC0006E74722074686572657300002F3136004F
:104CD00000000000040000000600000002000000C8
:104CE000726320636E74722074686572657300006D
:104CF0002F31360000000000040000000600000014
:104D000002000000726320636E7472207468657222
:104D1000657300002F313600000000000400000021
:104D20000600000002000000726320636E747220AF
:104D300074686572657300002F3136000000000052
:104D400004000000060000000200000072632063FF
:104D50006E74722074686572657300002F313600BE
:104D6000000000005B2532645D203C252D31357349
:104D70003E205B253364202D202533645D5B253385
:104D8000645D5B2535735D001B5B25643B256448D2
:104D90000000000020205B4E4F5D203C252D31356A
:104DA000733E205B4D494E202D204D41585D5B5692
:104DB000616C5D5B2535735D0A0000004E616D65B9
:104DC00000000000556E6974000000002D2D2D2D8F
:104DD0002D2D2D2D2D2D2D2D2D2D2D2D2D2D2D2D03
:104DE0002D2D2D2D2D2D2D2D2D2D2D2D2D2D2D2DF3
:104DF0002D2D2D2D2D2D2D2D2D2D2D2D2D0A000060
:104E00003E200000202000002B2D2D2D2D2D1B5B82
:104E1000313B33336D48454C501B5B303B33396D70
:104E20002D2D2D2D2D2D2D2D2D2D2D2D2D2D2D2BB4
:104E30002D2D2D2D2D2D2D2D2D2D2D2D2D2D2D2DA2
:104E40002D2D2D2D2D2D2D2D2B0A00007C20257391
:104E50002E2E2E252D3138737C2025732E2E2E25B7
:104E60002D3138737C0A0000E2869120000000009A
:104E7000435552534F52205550000000E286932074
:104E800000000000435552534F5220444F574E00EC
:104E90004C31000056414C554520444543403100BB
:104EA0005231000056414C554520494E4340310097
:104EB0004C32000056414C5545204445434031306A
:104EC000000000005232000056414C554520494E2A
:104ED0004340313000000000C39720004F4B0000DA
:104EE000E2978B200000000073772048454C502F3C
:104EF0005243206461746100E296B3200000000018
:104F00004C4F41442044454600000000E296A12059
:104F10000000000053415645203220464C41534882
:104F2000000000002B2D2D2D2D2D2D2D2D2D2D2D67
:104F30002D2D2D2D2D2D2D2D2D2D2D2D2D2B2D2DA3
:104F40002D2D2D2D2D2D2D2D2D2D2D2D2D2D2D2D91
:104F50002D2D2D2D2D2D2B0A000000002D2D2D2D5A
:104F60002D2D1B5B313B33336D52432056414C1B7F
:104F70005B303B33396D2D2D2D2D2D2D2D2D2D2DD0
:104F80002D2D2D2D2D2D2D2D2D2D2D2D2D2D2D2D51
:104F90002D2D2D2D2D2D2D2D2D2D2D2D0A000000EB
:104FA0001B5B324A0000000061646A757374207AEA
:104FB00065726F0A00000000E2978B202E2E2E20D3
:104FC00061646A7573740AC397202E2E2E20636164
:104FD0006E63656C0A0000002825642C2564292C6A
:104FE0002825642C2564290A000000002B2D2D2D76
:104FF0002D2D2D2D2D2D2D2D2D2D2D2D2B2020200A
:105000002B2D2D2D2D2D2D2D2D2D2D2D2D2D2D2DD2
:105010002B20200A000000007C20202020202020BF
:105020007C202020202020207C2020207C2020206C
:10503000202020207C202020202020207C20200ACE
:10504000000000007C2D2D2D2D2D2D2D2B2D2D2DF7
:105050002D2D2D2D7C2020207C2D2D2D2D2D2D2D09
:105060002B2D2D2D2D2D2D2D7C20200A0000000014
:105070001B5B34316D20201B5B34396D0000000058
:105080001B5B34326D20201B5B34396D0000000047
:105090006D73670061646A75737465640000000075
:1050A00063616E63656C6564000000003E00000093
:1050B0002A0000006C6F61642064656661756C7421
:1050C0002076616C75650000736176652073756389
:1050D0006365737300000000706C7A2072657365FD
:1050E0007400000065727200736176652066616904
:1050F0006C7572650000000052435F41444A55538D
:105100005400000000000000000000000102030441
:1051100006070809000000000102030444726976D2
:105120006572732F53544D3332463178785F48415E
:105130004C5F4472697665722F5372632F73746D7E
:105140003332663178785F68616C5F636F72746563
:10515000782E6300447269766572732F53544D3311
:1051600032463178785F48414C5F447269766572A7
:105170002F5372632F73746D3332663178785F68A2
:10518000616C5F646D612E6300000000447269769B
:105190006572732F53544D3332463178785F4841EE
:1051A0004C5F4472697665722F5372632F73746D0E
:1051B0003332663178785F68616C5F666C61736802
:1051C0002E630000447269766572732F53544D3319
:1051D00032463178785F48414C5F44726976657237
:1051E0002F5372632F73746D3332663178785F6832
:1051F000616C5F666C6173685F65782E63000000A8
:10520000447269766572732F53544D333246317848
:10521000785F48414C5F4472697665722F537263C0
:105220002F73746D3332663178785F68616C5F67B5
:1052300070696F2E63000000447269766572732F87
:1052400053544D3332463178785F48414C5F447255
:10525000697665722F5372632F73746D33326631C2
:1052600078785F68616C5F6932632E6300000000CC
:10527000447269766572732F53544D3332463178D8
:10528000785F48414C5F4472697665722F53726350
:105290002F73746D3332663178785F68616C5F6943
:1052A0007764672E63000000447269766572732F1D
:1052B00053544D3332463178785F48414C5F4472E5
:1052C000697665722F5372632F73746D3332663152
:1052D00078785F68616C5F7263632E630000000022
:1052E000447269766572732F53544D333246317868
:1052F000785F48414C5F4472697665722F537263E0
:105300002F73746D3332663178785F68616C5F72C9
:1053100063635F65782E6300447269766572732FEC
:1053200053544D3332463178785F48414C5F447274
:10533000697665722F5372632F73746D33326631E1
:1053400078785F68616C5F756172742E630000002D
:1053500000080140000C0140001001400014014011
:10536000447269766572732F6D6964646C654C6113
:10537000796572732F4750494F2F5372632F4D57E2
:105380005F4750494F2E63005800002094000020D2
:10539000447269766572732F6D6964646C654C61E3
:1053A000796572732F4932432F5372632F4D575FC4
:1053B0004932432E630000001C0100205C010020E4
:1053C0009C010020447269766572732F6D69646474
:1053D0006C654C61796572732F554152542F53722D
:1053E000632F4D575F55534152542E630000000008
:1053F000252D31307320252D336420252D38730061
:1054000041422825303278293A5B253038625D00E8
:105410005B25785D64757479206F76657220666CA3
:105420006F772825642900004D44282530327829DB
:105430003A5B0000467200004677000042770000A9
:10544000427200005D2C5B2534645D0A00000000A0
:1054500044445F73656E64324D44000024300000A4
:105460001B5B313B33336D1B5B34306D0000000040
:10547000E2869120200000001B5B303B33396D1B1E
:105480005B34396D00000000E286932020000000AC
:10549000E286922020000000E2869020200000009A
:1054A000E296A1202000000058202000E2978B20E7
:1054B00020000000E296B320200000004C312020A4
:1054C000000000004C32202000000000523120205B
:1054D0000000000052322020000000002825336424
:1054E0002C253364292C282533642C253364290A80
:1054F000000000006D61696E000000006F7363437F
:105500006F6E6669674661696C640000636C6F6307
:105510006B436F6E6669674661696C6400000000EA
:1055200048414C5F52434345785F506572697068EB
:10553000434C4B436F6E6669670000007761697486
:1055400020666F7220524320636F6E6E65637469CC
:105550006F6E2E2E2E000000524320696E69746912
:10556000616C697A65206661696C64210A000000DB
:10557000524320636F6E6E65637465642073756358
:10558000657373004957444720696E697469616C9B
:10559000697A65004957444720696E697469616C8E
:1055A000697A65206661696C6564210A0000000003
:1055B000696E697469616C697A65204661696C64B9
:1055C00025640000493243436F6E6E656374696FF2
:1055D0006E54657374204661696C64256400000034
:1055E000737461727421210A000000001B5B324A4F
:1055F0001B5B313B3148000024256400446576691B
:10560000636520447269766572205461736B732000
:105610004661696C64256400524320646973636F5A
:105620006E6E6563746564210000000053595F6904
:105630006E69740053595F636C6F636B496E697474
:045640000000000066
:045644003101000828
:045648000D01000848
:10564C00800200205C020020A4020020C80200207E
:10565C00EC0200201003002034030020580300202B
:10566C007C03002025000000100000000000110049
:10567C0000000000120000000000130000000000F9
:10568C0014000000000015000000000016000000CF
:10569C000000000000A24A0400540040A086010053
:1056AC0000000000000000000040000000000000AE
:1056BC0000000000000000000000000000000000DE
:1056CC0000000000000000000000000000000000CE
:1056DC000000000000580040A086010000000000FF
:1056EC00000000000040000000000000000000006E
:1056FC00000000000000000000000000000000009E
:10570C00000000000000000000000000000000008D
:10571C000030004000000000FF0F000000000000FF
:10572C00002C014000000000000000000000000000
:10573C00000000000000000000000000000000005D
:10574C00000000000000000000000000000000004D
:10575C0000000000000000000000000000380140C4
:10576C0000C201000000000000000000000000006A
:10577C000C00000000000000000000000000000011
:10578C00000000000000000000000000000000000D
:10579C000000000000000000000000000044004079
:1057AC0000C201000000000000000000000000002A
:1057BC000C000000000000000000000000000000D1
:1057CC0000000000000000000000000000000000CD
:1057DC000000000000000000000000000048004035
:1057EC008025000000000000000000000000000008
:1057FC000C00000000000000000000000000000091
:10580C00000000000000000000000000000000008C
:10581C00000000000000000000000000010000007B
:10582C000900000000FFFFFFFFFFFFFF0100000069
:0400000508004B198B
:00000001FF
